:100000000C943F2F0C94702F0C94702F0C94702F25
:100010000C94702F0C94702F0C94702F0C94702FE4
:100020000C94702F0D94E1160D94E1160D94E116C9
:100030000C94702F0C94702F0C94702F0C94702FC4
:100040000C94702F0D94FE640C94702F0C94702FF0
:100050000C94702F0C94702F0D9483360D945F4286
:100060000C94702F0C9433550C94FE540C94702FF8
:100070000C94702F0C94702F0C94702F0C94702F84
:100080000C9440480C94702F0C94702F0C94702F8B
:100090000C94702F0C94702F0C94702F0C94702F64
:1000A0000C94702F0C94702F0C9412480C94702F99
:1000B0000C94702F0C94702F0C94702F0C94702F44
:1000C0000C94702F0C94702F0C94702F0C94702F34
:1000D0000C94702F0C94702F0C94702F0C94702F24
:1000E0000C94702FAE45AC45D045CD45CB4502466E
:1000F000FF45FD455B462946264624463F4C444C79
:10010000494C534C5D4CD64C674C6F4C774C814CF2
:100110008B4C954CA44CAE4CD64CB84CC24CCC4CF1
:1001200069557B558D559E55A655D955AA55D95516
:10013000AE55B255D955B655BA55BE55C755D95510
:10014000D25573740B734473AF7444734473447324
:1001500044734473447344734473447344734473E7
:1001600044734473447344734473447344734473D7
:100170004473447344734473447344734473A97461
:1001800044734473447344734473447344734473B7
:100190008274447344734473447344734473447368
:1001A000447344734473C6744173E4A7CDA7F3A7A3
:1001B000D0A7D3A7D6A7CAA7DFA7F6A7F1A7D9A725
:1001C000DCA74D02230245026701E3023702C701A3
:1001D0001D02AF01A7026B01970239021702370215
:1001E000F302AB02E102084AD73B3BCE016E84BC6E
:1001F000BFFDC12F3D6C74319ABD56833DDA3D0081
:10020000C77F11BED9E4BB4C3E916BAAAABE0000C9
:1002100000803F05A84CCDB2D44EB93836A9020CA7
:1002200050B9918688083CA6AAAA2ABE0000008080
:100230003F000C94FF450C9436890C94C7550C94E0
:100240003FF70C94869E0C94D7E00C9452920C9439
:1002500024460C941A930C947F880C9408F80C9400
:1002600069550C9404890C9481900D94370A0D946F
:10027000474C0C940BD30C94A19D0C9487900C9438
:10028000F9A70C946A890D94B5940C94208F0C9462
:10029000A44C0C94CAA70C94078A0C94A0750C94D7
:1002A000CC4C0C94BD9D0C94D2A10C9439E10C94CF
:1002B000C4E00C94B2550C94D9A70C9444730C94DC
:1002C00049A80D94AD5C0D94B85C0C94E4A70D9412
:1002D00010170C946BF70D9433170C94AF740D94A6
:1002E000102E0C94C7D20C949F900C940DE10C949A
:1002F0000DF80C9497D20C9438720C9434E10C9451
:100300009EFF0C9420DD0C94A4E00C94638D0C945F
:1003100068F70D94F20B0C94AA550C9430F80C94D9
:1003200020A00C9499900C94AED20C94DFA70C945E
:1003300061D90C94BCE00C94A3E40C94EE890C9469
:10034000D9550C942D990C9448E10C94E4970C9495
:100350006AFE0C948A8B0C94728D0C945E920D94B0
:100360002B170D94040C0C94F6A70C94C2E00C947B
:1003700026460D94C95C0C94D0A70C942DE20C94E5
:1003800043E10C943F4C0D9480090C9425920D94FC
:1003900021170C9434920D940A0C0D9400100C94B7
:1003A00078F80C94FD450D944B110D94E60B0C94CC
:1003B00047A80D94CD5C0C942DE30C949E550C94A1
:1003C000A4720C948B940C943EE10C94AC450C9468
:1003D000CD450C94CB450C94BE550C9447930C948E
:1003E000D64C0C943B930C94C24C0C94C89D0D9429
:1003F0000C100C943E750C94DC970C94A9890C9409
:100400005A8D0C9412F80C94494C0C946F4C0D942A
:10041000EF5D0C94A1720C94ACE00C948D900C9454
:1004200023930D941A610C94E0970C94D0880D944A
:1004300041170C947FDF0C94AE550D9425170D9445
:100440001E000D943D0A0D941D170C946D920C9492
:10045000D2550C94E4F70C94674C0C941BF80C9454
:100460007D890C942FE10C94F1A70C94A6550D9462
:1004700054170D943D170C94444C0C948D550C94CA
:10048000A79E0C948B4C0C94AA9D0D940C170C9465
:100490008EDF0C9496AD0C94D0450D941A170D94E4
:1004A0003A0A0C94B4E00C9493900D9453110D946B
:1004B000340A0C94AE450C94BC890C94C2F70C948D
:1004C000B6550C9425F80D9454610C9424A00C940A
:1004D00056880C940FD30C940B730D94B45C0C944D
:1004E00088DF0C9467A80C94CFE00C9469D20C942C
:1004F00002460C94EF9C0D94100C0C9482740C9496
:10050000A0720C94A1950C94B4900C945B460C943E
:10051000D3A70C940B930C94DE970C9433900C940B
:1005200025E10C9413E10C94BA550C94534C0D94A2
:1005300039170C941D890C9416750C9443920C94E5
:10054000CDA70D944F030D9499090C947B550D94F0
:100550002F170C948BA40D944B170D942C420C94D4
:10056000774C0C94AE4C0D944F110C9418A00C9435
:10057000D6A70C94A9740D9433030C94C5D20C9493
:10058000A5B20D944C000D946D090D9457110D9466
:10059000B05C0C944F890C94EB880C9480D20C9432
:1005A00035720D94830D0C942AE10D945B110C941B
:1005B0008AAD0C9409E70C94A8A90C941CA00C9487
:1005C00073F70D944F170D9414170C944D9D0C94C4
:1005D0008AF70C94B29D0C9429930C949A880C94ED
:1005E00041930D948B5D0D9447170C9473740C9488
:1005F0001FE10C9433A50C9490890D9447110C9431
:100600001CA80C942F930C942E9D0C9464880C942D
:10061000814C0C9441730C9477900C94E2970C9459
:100620003EC20C94D5890C94A0F70C94B84C0C9451
:10063000954C0C94F3A70C949CE00C9435930C947B
:10064000BD970C9431990D945F110C9467E10D9452
:1006500097940C94F5B00C94B5880C942F990C9445
:100660001A8A0C94A3D70C9429460C947C9E0C9463
:100670005D4C0C94A5900C947C920C94C6740D94D3
:1006800002420C9419E10C9426E20C94DCA74E4132
:100690004E494E495459494E46CDCCCC3D0AD723FC
:1006A0003C17B7D13877CC2B329595E6241FB14F44
:1006B0000A000020410000C84200401C4620BCBE89
:1006C0004CCA1B0E5AAEC59D7400407A10F35A00F6
:1006D000A0724E18090010A5D4E80000E87648176B
:1006E0000000E40B54020000CA9A3B000000E1F550
:1006F00005000080969800000040420F000000A016
:100700008601000000102700000000E80300000040
:10071000006400000000000A00000000000100006A
:100720000000002C76D888DC674F0823DFC1DFAEDD
:1007300059E1B1B796E5E3E453C63AE651997696A6
:10074000E8E6C28426EB898C9B62ED407C6FFCEF6F
:10075000BC9C9F40F2BAA56FA5F490055A2AF75C9D
:10076000936B6CF9676DC11BFCE0E40D47FEF5204F
:10077000E6B500D0ED902E03009435770500808417
:100780001E080000204E0A000000C80C333333332B
:100790000F986E12831141EF8D2114893BE6551697
:1007A000CFFEE6DB18D1844B381BF77C1D901DA4CF
:1007B000BBE424203284725E228100C9F124ECA1C2
:1007C000E53D274C4556454C494E4700434F4D4D5E
:1007D000554E49434154494F4E0044525952554E8B
:1007E000004552524F525300494E464F0045434830
:1007F0004F00536C6565702E2E2E005A2050726F7C
:1008000062652050617374204265640A005A20506A
:10081000726F626520506173742042656400203AF3
:1008200020686F6D655F7A5F736166656C790A0039
:10083000202064657374696E6174696F6E3D006831
:100840006F6D655F7A5F736166656C79005261698F
:100850007365205A20286265666F726520686F6D27
:10086000696E672920627920003E20686F6D696E8D
:1008700067206E6F74206E65656465642C20736BF1
:1008800069700A004732380070726F62655F726586
:100890007769706500473239205265747279696EE4
:1008A000670050726F62696E67204661696C6564AB
:1008B000004D31313720426564206C6576656C6986
:1008C0006E67206661696C65642E0A4730205A3174
:1008D000300A47302045300A4D3330302050323511
:1008E00020533838300A4D333030205035302053C3
:1008F000300A4D3330302050323520533838300AEA
:100900004D333030205035302053300A4D333030A5
:100910002050323520533838300A473420533100C4
:1009200070726F62655F6661696C6564004D31313C
:10093000372050726F6265207375636365737366E9
:10094000756C00205A3A200020593A200042656414
:1009500020583A20004D65736820706F696E7420CE
:100960006F7574206F662072616E67650A004D3086
:100970002053746F70004D312053746F7000436CBE
:1009800069636B20746F20526573756D652E2E2E12
:10099000004E6F204D6F76652E00456E64206669AF
:1009A0006C65206C6973740A00426567696E206625
:1009B000696C65206C6973740A004E6F206D656404
:1009C00069610A00526573756D696E672053440052
:1009D000286E6F2066696C65290043757272656EBA
:1009E000742066696C653A20005072696E742074D8
:1009F000696D653A20006F6B006F666600ED07E871
:100A000007E107DA07CC07C30744454255473A00D8
:100A10004D31313320530054617A20536964654B62
:100A200069636B20323839204F46462E002F2F0045
:100A30004D31343520533C696E6465783E206F75C6
:100A400074206F662072616E67652028302D312911
:100A50000A00416363656C65726174696F6E00467C
:100A6000656564726174650046523A0020466C6F99
:100A7000773A2000206F7574206F662072616E6770
:100A8000650A00536572766F20003A200020536596
:100A900072766F200020643A0020693A0020703A94
:100AA00000496E76616C696420657874727564655E
:100AB000720A0020643A0020693A0020703A00640B
:100AC000697300656E0043290A0061626C656420E9
:100AD000286D696E2074656D702000436F6C642012
:100AE00065787472756465732061726520004D3499
:100AF000323120696E636F72726563742070617247
:100B0000616D657465722075736167650A004D6576
:100B1000736820706F696E74206F7574206F662023
:100B200072616E67650A00454550524F4D204F4B2C
:100B30000A002E0A002028302D313029002076614D
:100B40006C7565206F7574206F662072616E6765C5
:100B500000416476616E6365204B3D002074656DD5
:100B60007065726174757265207072657761726EFE
:100B7000207472696767657265643A200020746545
:100B80006D706572617475726520707265776172DF
:100B90006E207472696767657265643A200020741C
:100BA000656D7065726174757265207072657761CC
:100BB000726E207472696767657265643A200020FE
:100BC00074656D7065726174757265207072657799
:100BD00061726E207472696767657265643A20009D
:100BE00020686F6D696E672073656E7369746976CE
:100BF0006974793A200020686F6D696E67207365AB
:100C00006E73697469766974793A20004F464600BC
:100C10004F4E00506F7765722D6C6F737320726545
:100C2000636F766572792000446F6E65207072691B
:100C30006E74696E672066696C650A004D3737000F
:100C40004D333100496E76616C6964206578747249
:100C5000756465720A00290A002E2E2E28005400A1
:100C6000554E4B4E4F574E20535441544500474329
:100C70004F44455F494E464F004C43445F504155F9
:100C800053455F524553554D450046494C414D45EE
:100C90004E545F52554E4F55545F434F4E54494E3C
:100CA00055450046494C414D454E545F52554E4FB7
:100CB0005554004D38373620526573706F6E646935
:100CC0006E672050524F4D50545F004572726F72E4
:100CD0002077726974696E6720746F2045455052A1
:100CE0004F4D210A0053544F505045442E20005080
:100CF00072696E7465722073746F707065642064BD
:100D0000756520746F206572726F72732E2046694C
:100D10007820746865206572726F7220616E64203D
:100D2000757365204D39393920746F20726573747D
:100D30006172742E202854656D70657261747572CD
:100D4000652069732072657365742E205365742065
:100D5000697420616674657220726573746172745F
:100D6000696E67290A004E6F20436865636B73756F
:100D70006D2077697468206C696E65206E756D6290
:100D800065722C204C617374204C696E653A2000AA
:100D90004E6F20436865636B73756D207769746867
:100DA000206C696E65206E756D6265722C204C61D9
:100DB0007374204C696E653A2000636865636B73D9
:100DC000756D206D69736D617463682C204C61735F
:100DD00074204C696E653A20004C696E65204E7532
:100DE0006D626572206973206E6F74204C6173743C
:100DF000204C696E65204E756D6265722B312C201A
:100E00004C617374204C696E653A20004D3131306D
:100E10000053442072656164206572726F720A002B
:100E2000486F74656E642049646C652054696D6513
:100E30006F757400486F74656E642049646C65203A
:100E400054696D656F75740A006D41290A0020644C
:100E50007269766572206F76657274656D70657201
:100E60006174757265207761726E696E67212028E2
:100E7000003A20002063757272656E7420646563A9
:100E800072656173656420746F20006D41290A00EA
:100E900020647269766572206F76657274656D7014
:100EA00065726174757265207761726E696E672113
:100EB0002028003A20002063757272656E742064E9
:100EC000656372656173656420746F20006D4129EC
:100ED0000A0020647269766572206F7665727465A7
:100EE0006D7065726174757265207761726E696E7E
:100EF00067212028003A20002063757272656E74A5
:100F00002064656372656173656420746F20006D91
:100F100041290A0020647269766572206F766572D5
:100F200074656D7065726174757265207761726E3B
:100F3000696E67212028003A20002121204B494C6E
:100F40004C20636175736564206279204B494C4C79
:100F500020627574746F6E2F70696E0A00212120F3
:100F60004B494C4C20636175736564206279207431
:100F70006F6F206D75636820696E61637469766553
:100F80002074696D65202D2063757272656E742002
:100F9000636F6D6D616E643A2000627573793A20FB
:100FA00070617573656420666F7220696E70757408
:100FB0000A00627573793A20706175736564206602
:100FC0006F7220757365720A00627573793A2070CA
:100FD000726F63657373696E670A004D656469615A
:100FE0002052656D6F766564004D656469612049C6
:100FF0006E736572746564004D313030305300207B
:101000005200416363656C65726174696F6E3A206A
:1010100050005741524E494E4721204C6F77205A7D
:10102000204A65726B206D6179206C656164207463
:101030006F20756E77616E7465642070617573657D
:10104000732E0A00204D393220580020204D61783F
:101050003A2000200020204D696E3A2000536F6630
:101060007420656E6473746F70733A200025290ACA
:1010700000252000203B20280020440020410020A3
:10108000490020204D3731302053003B20436F6E04
:1010900074726F6C6C65722046616E0A004D32345A
:1010A0002053256C642054256C64004739322E3956
:1010B0002045257300473120462564004739322EEC
:1010C00039205A2573004731205A302046323030BB
:1010D000004731205825732059257320463330307E
:1010E00030004D34323020532569205A2573004D8D
:1010F0003130362050256920532569004D31303973
:1011000020532569004D31393020532569004D3277
:101110003030204425730047323852305859004748
:1011200039322E39204530205A300A47315A25733A
:10113000004D343230205330205A300073707265C5
:1011400061644379636C6500737465616C746843B2
:10115000686F700020647269766572206D6F6465D7
:101160003A09007370726561644379636C6500735A
:101170007465616C746843686F700020647269768E
:101180006572206D6F64653A090073707265616401
:101190004379636C6500737465616C746843686F50
:1011A000700020647269766572206D6F64653A091B
:1011B000007370726561644379636C650073746574
:1011C000616C746843686F70002064726976657240
:1011D000206D6F64653A090020647269766572203B
:1011E00063757272656E743A200020647269766568
:1011F000722063757272656E743A200020647269A1
:101200007665722063757272656E743A2000206490
:1012100072697665722063757272656E743A200029
:10122000207072657761726E20666C616720636CF6
:1012300065617265640A00207072657761726E2064
:10124000666C616720636C65617265640A0020707A
:1012500072657761726E20666C616720636C656190
:101260007265640A00207072657761726E20666C28
:10127000616720636C65617265640A0020496E765F
:10128000616C69642065787472756465722000729F
:10129000657365745F6265645F6C6576656C0A0092
:1012A000424C546F75636820436F6D6D616E6420AE
:1012B0003A00424C546F75636820536574204D6F3B
:1012C0006465202D2000636F6E666967206D6F6412
:1012D00065202D204F440A006C6173745F7772693A
:1012E0007474656E5F6D6F6465202D200021212070
:1012F00053544F502063616C6C6564206265636178
:10130000757365206F6620424C546F756368206565
:1013100072726F72202D20726573746172742077FF
:10132000697468204D3939390A00424C546F75632D
:1013300068205265636F76657279204661696C65D5
:10134000640A00626C746F7563682E6465706C6FFC
:10135000795F70726F63282920656E640A00424CC1
:10136000546F75636820414C41524D206F72205478
:101370005249474745522061667465722044455082
:101380004C4F592C207265636F766572696E670ADF
:1013900000424C546F756368204445504C4F5920AF
:1013A0007265717565737465640A00626C746F753B
:1013B00063682E73746F775F70726F63282920657E
:1013C0006E640A0021212053544F502063616C6CDD
:1013D00065642062656361757365206F6620424CA9
:1013E000546F756368206572726F72202D2072656C
:1013F00073746172742077697468204D3939390AC1
:1014000000424C546F756368205265636F76657255
:1014100079204661696C65640A00424C546F7563BB
:101420006820414C41524D206F7220545249474729
:1014300045522061667465722053544F572C2072B8
:1014400065636F766572696E670A00424C546F750A
:1014500063682053544F57207265717565737465C6
:10146000640A005072696E74696E67204F626A6523
:101470006374002553202569002F2F616374696F01
:101480006E3A00656E6400486F74656E6420746F18
:101490006F20636F6C640A0053656E64204D3130B9
:1014A0003820746F20726573756D650A00496E731C
:1014B0006572742066696C616D656E7420616E641E
:1014C0002073656E64204D3130380A0052656865BE
:1014D000617420446F6E6500526568656174696E61
:1014E000672E2E2E00526568656174004865617430
:1014F00065722054696D656F75740053656E642064
:101500004D31303820746F2068656174206E6F7AB9
:101510007A6C650A004E6F7A7A6C65205061726B46
:101520006564007061757365640050617573650072
:10153000726573756D656400526573756D696E676C
:10154000002568753A253032687500253032687597
:101550003A25303268750025687564202530326878
:10156000753A253032687500447269766572206577
:1015700072726F7200636F696C2073686F7274208F
:10158000636972637569740A006F76657274656D5C
:1015900070657261747572650A002064726976659F
:1015A00072206572726F722064657465637465641D
:1015B0003A203078004C4F570048494748004F4B7D
:1015C000004572726F723A20416C6C200020636F8C
:1015D0006E6E656374696F6E2E2E2E2000546573D7
:1015E00074696E6720004C4F570048494748004FC8
:1015F0004B004572726F723A20416C6C2000206380
:101600006F6E6E656374696F6E2E2E2E20005465AA
:101610007374696E6720004C4F5700484947480073
:101620004F4B004572726F723A20416C6C20002063
:10163000636F6E6E656374696F6E2E2E2E2000547C
:10164000657374696E6720004C4F570048494748DE
:10165000004F4B004572726F723A20416C6C200053
:1016600020636F6E6E656374696F6E2E2E2E200080
:1016700054657374696E672000544D4320434F4E88
:101680004E454354494F4E204552524F52004F460B
:10169000460A0046616465204865696768742000F1
:1016A000426564204C6576656C696E672000466112
:1016B000696C656420746F20656E61626C652042A0
:1016C0006564204C6576656C696E670A00496E76C4
:1016D000616C6964206D6573682E0A004572723A08
:1016E000207574663820666F6E74206E6F74206982
:1016F0006E697469616C697A65642E004572723A2C
:10170000207574663820666F6E74206E6F74206961
:101710006E697469616C697A65642E004572723A0B
:10172000207574663820666F6E74206E6F74206941
:101730006E697469616C697A65642E006D61726CA2
:10174000696E66772E6F726700322E302E362E321B
:10175000001FFFFFFFFFFFFF600000000001FF40D0
:101760000000000000FF8000000000007F83CF0029
:10177000000C303F87FF80000C301F867980000C02
:10178000000F8C30C7838C30E78C30CFC7CC31F35F
:101790008C30DCECEC33B98C30D86C6C33198C3079
:1017A000D06C0C33198C30D86C0C33198C30DC6C49
:1017B0000E3B198C30CF7C079F198C30C77C038F70
:1017C0001940000000000002600000000000061F39
:1017D000FFFFFFFFFFF8000C0F00FE07022503BB11
:1017E000017FFE08FE08FE05080806000040F0C85C
:1017F0008888987810050808060000C0F88888884E
:101800008888F80505050600012030F83020050815
:10181000080600002070F820202020E005090906B5
:1018200000FF2070A8A8B888887020070505070069
:1018300001D86C366CD80509090600FFF8A888881D
:10184000888888A8F8050A0A0600FE2050505050E3
:1018500088A8A8887003030306000340A040FFFF88
:10186000FFFFFFFFFFFFFFFFFFFFFFFFFFFFFFFF88
:10187000FFFFFFFF0000000605FF0107070602004B
:1018800080808080800080030303060105A0A0A063
:1018900005060606000050F85050F85005090906E4
:1018A00000FF2070A8A07028A87020050707060078
:1018B00000C8C8102040989805070706000040A0FF
:1018C000A040A890680103030602058080800309F8
:1018D000090601FF20404080808040402003090924
:1018E0000601FF8040402020204040800507070679
:1018F000000020A8702070A8200505050600012022
:1019000020F820200203030601FFC04080050101EA
:10191000060003F8020202060100C0C00507070620
:1019200000000810102040408005070706000070E6
:101930008898A8C8887003070706010040C0404087
:101940004040E0050707060000708808102040F8B6
:10195000050707060000F80810300888700507071B
:1019600006000010305090F8101005070706000020
:10197000F880F008088870050707060000304080EE
:10198000F0888870050707060000F808101020206E
:101990002005070706000070888870888870050792
:1019A00007060000708888780810600205050601A7
:1019B00000C0C000C0C00206060601FFC0C000C0D3
:1019C00040800305050601012040804020050303F7
:1019D000060002F800F803050506010180402040DA
:1019E00080050707060000708810202000200507EA
:1019F000070600007088B8A8B880700507070600C1
:101A000000708888F8888888050707060000F04875
:101A100048704848F00507070600007088808080FD
:101A20008870050707060000F04848484848F00558
:101A30000707060000F88080F08080F80507070699
:101A40000000F88080F080808005070706000070A5
:101A5000888080988870050707060000888888F8C5
:101A6000888888030707060100E04040404040E0C6
:101A700005070706000038101010109060050707D2
:101A80000600008890A0C0A0908805070706000007
:101A9000808080808080F805070706000088D8A82D
:101AA000888888880507070600008888C8A898885D
:101AB00088050707060000708888888888700507F1
:101AC00007060000F08888F0808080050707060080
:101AD0000070888888A89068050707060000F088CD
:101AE00088F0A090880507070600007088807008BD
:101AF0008870050707060000F82020202020200518
:101B00000707060000888888888888700507070608
:101B10000000888888885050200507070600008844
:101B2000888888A8A85005070706000088885020E4
:101B3000508888050707060000888850202020204C
:101B4000050707060000F80810204080F80309097F
:101B50000601FFE080808080808080E00507070626
:101B60000000804040201010080309090601FFE032
:101B700020202020202020E005030306000520501F
:101B8000880501010600FEF80303030601058040F5
:101B90002005050506000070087888780507070607
:101BA00000008080F0888888F00505050600007038
:101BB00080808870050707060000080878888888F4
:101BC000780505050600007088F080700507070697
:101BD0000000304840E04040400507070600FE7026
:101BE0008888887808700507070600008080F088DC
:101BF0008888880307070601004000C0404040E095
:101C00000409090601FE1000301010101090600544
:101C1000070706000080808890E090880307070689
:101C20000100C04040404040E0050505060000D0EE
:101C3000A8A8A8A8050505060000B0C888888805DA
:101C4000050506000070888888700507070600FEF5
:101C5000F0888888F080800507070600FE7888886D
:101C600088780808050505060000B0C88080800552
:101C7000050506000078807008F0050707060000DB
:101C80002020F820202018050505060000888888F7
:101C90009868050505060000888888502005050518
:101CA0000600008888A8A850050505060000885091
:101CB0002050880507070600FE888888502040804D
:101CC000050505060000F8102040F8030909060183
:101CD000FF2040404080404040200109090602FFAB
:101CE0008080808080808080800309090601FF80D9
:101CF000404040204040408005030306000248A8C1
:101D000090FF00060900FE06020F038401FFFE0794
:101D1000FE06FE05070700000040F0C8889878100E
:101D2000050707000000C0F888888888F8050505C1
:101D30000000012030F83020050707000000207067
:101D4000F8202020E00507070000002070A8B888D0
:101D50007020060505000000B0D86CD8B005080852
:101D60000000FFF8A888888888A8F80509090000FD
:101D7000FE205050505088A88870030303000003D1
:101D800040A040FFFFFFFFFFFFFFFFFFFFFFFFFF40
:101D9000FFFFFFFFFFFFFFFFFF0000000605FF0141
:101DA000060606020080808080008003030306018F
:101DB00003A0A0A00507070600FF5050F850F850F8
:101DC000500509090600FE2070A8A07028A8702000
:101DD0000608080600FF40A84810204854080507D8
:101DE000070600FF60909060989068010303060268
:101DF000038080800207070602FF40808080808089
:101E0000400207070602FF80404040404080050531
:101E1000050600008850F8508805050506000020DA
:101E200020F820200204040602FEC0404080050184
:101E300001060002F8020202060200C0C004060603
:101E40000601001010204080800406060601006094
:101E5000909090906003060606010040C04040400C
:101E6000E00406060601006090102040F00406061B
:101E7000060100F020601010E005060606000010C4
:101E8000305090F810040606060100F080E01010B3
:101E9000E00406060601006080E0909060040606FB
:101EA000060100F010102040400406060601006004
:101EB000906090906004060606010060909070109B
:101EC00060020505060200C0C000C0C00207070688
:101ED00002FEC0C000C04040800505050600001895
:101EE00060806018050303060001F800F805050589
:101EF000060000C0300830C00407070601006090EB
:101F000010604000400506060600007090A8B080F2
:101F100070050606060000205088F8888805060629
:101F2000060000F088F08888F004060606010060CC
:101F30009080809060040606060100E090909090EA
:101F4000E0040606060100F080E08080F00406064A
:101F5000060100F080E08080800406060601006033
:101F60009080B090600406060601009090F090907A
:101F700090030606060100E040404040E0050606EA
:101F8000060000381010109060040606060100904C
:101F9000A0C0A0909004060606010080808080808A
:101FA000F005060606000088D8A8A888880406065A
:101FB00006010090D0B090909005060606000070D3
:101FC0008888888870040606060100E09090E0800A
:101FD000800407070601FF609090D0B060100406EF
:101FE00006060100E09090E09090040606060100CD
:101FF000609040209060050606060000F820202032
:10200000202004060606010090909090906004063F
:1020100006060100909090F060600506060600003C
:102020008888A8A8D88805060606000088502020C1
:1020300050880506060600008888502020200406E7
:1020400006060100F010204080F00306060601009D
:10205000E080808080E00406060601008080402049
:102060001010030606060100E020202020E00503F2
:10207000030600032050880501010600FEF8020255
:10208000020602048040040404060100709090706F
:102090000406060601008080E09090E00404040637
:1020A0000100708080700406060601001010709018
:1020B000907004040406010060B0C07004060606B7
:1020C0000100205040E040400406060601FE6090FA
:1020D000907010600406060601008080E0909090E9
:1020E0000306060601004000C04040E00308080661
:1020F00001FE200060202020A0400406060601000A
:102100008080A0C0A090030606060100C0404040A9
:1021100040E0050404060000D0A8A88804040406D2
:102120000100E0909090040404060100609090602B
:102130000406060601FEE09090E080800406060694
:1021400001FE709090701010040404060100A0D0ED
:10215000808004040406010070C030E00406060616
:1021600001004040E040502004040406010090902B
:102170009070040404060100909060600504040659
:10218000000088A8A8500404040601009060609034
:102190000406060601FE9090907090600404040608
:1021A0000100F02040F003070706010020404080B6
:1021B0004040200107070602FF80808080808080E9
:1021C00003070706010080404020404080040202CF
:1021D00006010350A0FFFFFFFFFFFFFFFFFFFFFF10
:1021E000FFFFFFFFFFFFFFFFFFFFFFFFFFFFFFFFFF
:1021F000FFFFFFFFFFFF0000000605FF01060606C8
:1022000002008000808080800406060601FF2070A6
:10221000A0A070200507070600FF304840F04040AE
:10222000F8050505060000A8508850A80506060612
:1022300000008850F820F8200107070602FF808080
:1022400080008080800407070601FF708060906036
:1022500010E0030101060105A0060707060000784B
:102260008494A494847803050506010160A06000AD
:10227000E00505050600002850A0502804030306C9
:102280000100F01010040101060102F00607070624
:1022900000007884B4A4A48478040101060105F048
:1022A0000403030601026090600507070600FF2093
:1022B00020F8202000F803050506010140A0204079
:1022C000E0030505060101C0204020C0020202060D
:1022D000020440800405050601FF9090B0D08005FF
:1022E000060606000078E8E86828280101010602D1
:1022F00002800202020602FE40800305050601017B
:1023000040C04040E003050506010140A04000E058
:10231000050505060000A0502850A0050808060085
:10232000FF40C04050703078100508080600FF409C
:10233000C04050680810380508080600FFC020405B
:1023400030F030781004070706010020002060807C
:10235000906005070706000040202050708888051F
:102360000707060000102020507088880507070620
:1023700000002050205070888805070706000028BC
:102380005020507088880507070600005000205034
:102390007088880507070600002050205070888844
:1023A00005060606000078A0F0A0A0B804080806FC
:1023B00001FE6090808090602040040707060100C5
:1023C0004020F080E080F00407070601002040F084
:1023D00080E080F00407070601002050F080E080D4
:1023E000F00407070601005000F080E080F00307CA
:1023F000070601008040E0404040E0030707060177
:10240000002040E0404040E003070706010040A0F4
:10241000E0404040E0030707060100A000E0404024
:1024200040E00506060600007048E84848700407CA
:102430000706010050A090D0B09090040707060155
:102440000040206090909060040707060100204043
:102450006090909060040707060100205060909003
:10246000906004070706010050A0609090906004FF
:102470000707060100500060909090600505050672
:10248000000088502050880408080601FF1070B032
:10249000B0D0D0E080040707060100402090909063
:1024A000906004070706010020409090909060041F
:1024B00007070601002050909090906004070706DF
:1024C00001005000909090906005070706000010F2
:1024D00020885020202004060606010080E090900D
:1024E000E0800406060601006090A0A090A004070A
:1024F0000706010040200070909070040707060155
:1025000000204000709090700407070601002050E2
:10251000007090907004070706010050A0007090B2
:102520009070040606060100500070909070040739
:1025300007060100205020709090700504040600EA
:102540000070A8B0780406060601FE708080702036
:102550004004070706010040200060B0C070040777
:102560000706010020400060B0C0700407070601A4
:102570000020500060B0C070040606060100500044
:1025800060B0C070030707060100804000C04040F3
:10259000E0030707060100204000C04040E00307B9
:1025A0000706010040A000C04040E0030606060107
:1025B00000A000C04040E0040707060100306010A2
:1025C0007090906004070706010050A000E0909012
:1025D0009004070706010040200060909060040707
:1025E0000706010020400060909060040707060184
:1025F000002050006090906004070706010050A082
:102600000060909060040606060100500060909003
:10261000600505050600002000F8002004040406FB
:10262000010070B0D0E004070706010040200090D0
:102630009090700407070601002040009090907071
:1026400004070706010020500090909070040606D1
:102650000601005000909090700409090601FE20C8
:1026600040009090907090600408080601FE808001
:10267000E09090E080800408080601FE50009090F1
:10268000907090603E3E3E0020636F72726563748E
:102690006564205A3A0047323920756E636F727252
:1026A0006563746564205A3A00203A203E207072B7
:1026B0006F62696E6720636F6D706C6574650A0088
:1026C000202063757272656E745F706F73697469D0
:1026D0006F6E3D0050726F62696E6720506F696E59
:1026E000740025532025692F2569002E0A002F002C
:1026F00050726F62696E67206D65736820706F69D4
:102700006E742000202844525952554E29004732F9
:1027100039204175746F20426564204C6576656C84
:10272000696E67003F20284C2C522C462C422920F1
:102730006F7574206F6620626F756E64732E0A0069
:10274000204200204600205200473239204C003FF2
:102750002856296572626F7365206C6576656C20FA
:10276000696D706C61757369626C652028302D34F9
:10277000292E0A00426164205A2076616C75650A30
:10278000004E6F2062696C696E65617220677269C4
:10279000640A003E204175746F2D6C6576656C206F
:1027A0006E6F74206E65656465642C20736B697050
:1027B0000A00473239004732380052756E6E696E32
:1027C0006720506F737420436F6D6D616E64730A80
:1027D00000526573746F72652043757272656E7412
:1027E0000A005A204261636B6F66660A0046696E92
:1027F000616C205A204D6F76650A005265647563DE
:10280000696E672043757272656E740A0053657451
:1028100074696E67205A20506F756E63650A0050A8
:1028200061726B696E672058590A0020284E6F74D8
:1028300020796574206D6561737572656429002067
:102840002041766572616765206D6561737572659B
:1028500064206261636B6C61736820286D6D293A36
:10286000002020536D6F6F7468696E6720286D6D4E
:10287000293A202020202020202020202020202035
:10288000202020530020204261636B6C617368201C
:1028900044697374616E636520286D6D293A202048
:1028A00020202020202000202846312E30203D20CE
:1028B00066756C6C2C2046302E30203D206E6F6E7D
:1028C00065290A002020436F7272656374696F6E18
:1028D00020416D6F756E742F466164652D6F757440
:1028E0003A202020202046006163746976653A0A08
:1028F00000696E004261636B6C61736820436F72A4
:1029000072656374696F6E200044657669617469ED
:102910006F6E0025533A2025730046696E6973680F
:102920006564210A003A207A3A2000206F66200070
:10293000476F696E6720746F3A20580043570A004A
:10294000206469723A0020616E676C653A005374C6
:10295000617274207261646975733A004D34382075
:10296000506F696E740025533A2025642F2564004A
:10297000506F736974696F6E696E67207468652043
:1029800070726F62652E2E2E0A003F4C65677320B1
:102990006F66206D6F76656D656E7420696D706C05
:1029A00061757369626C652028302D3135292E0AD6
:1029B000003F2028582C5929206F7574206F6620FD
:1029C000626F756E64732E0A0050726F6265206FBD
:1029D0007574206F6620626F756E6473003F53617B
:1029E0006D706C652073697A65206E6F7420706CF1
:1029F00061757369626C652028342D3530292E0A83
:102A0000004D3438205A2D50726F62652052657027
:102A10006561746162696C69747920546573740AC4
:102A2000003F2856296572626F7365206C65766574
:102A30006C20696D706C61757369626C65202830FB
:102A40002D34292E0A005374616E6461726420442F
:102A50006576696174696F6E3A20002052616E6715
:102A6000653A2000204D61783A2000204D696E3A89
:102A70002000205369676D613A20004D65616E3A10
:102A80002000536D6F6F7468696E67005A005900BB
:102A90005800436F7272656374696F6E004D6169AF
:102AA0006E003F0043616E63656C204F626A656330
:102AB00074004E4F005945530043616E63656C20AE
:102AC0004F626A656374203D004D61696E00537406
:102AD0006F77004465706C6F790053572D4D6F64AC
:102AE000650053656C662D5465737400526573659B
:102AF000740049646C6520506572696F64004163BD
:102B000074697665205370656564004175746F2043
:102B10004D6F64650049646C6520537065656400A1
:102B2000556E72657472616374205600556E7265DD
:102B300074722E206D6D00486F70206D6D005265AF
:102B400074726163742056005265747261637420FC
:102B50006D6D004175746F2D526574726163740000
:102B6000426564004E6F7A7A6C650046616E205350
:102B70007065656400436F6E66696775726174693C
:102B80006F6E00416D6178204500416D6178205A7B
:102B900000416D6178205900416D617820580041F5
:102BA0002D54726176656C00412D526574726163BB
:102BB0007400416363656C0056652D4A65726B0055
:102BC000565A2D4A65726B0056592D4A65726B0034
:102BD00056582D4A65726B0050726F6265205A20FC
:102BE0004F66667365740050726F62652059204F9E
:102BF00066667365740050726F62652058204F6678
:102C00006673657400452073746570732F6D6D0075
:102C10005A2053746570732F6D6D0059205374657D
:102C200070732F6D6D00582053746570732F6D6D28
:102C300000416476616E6365642053657474696EE7
:102C40006773003F0043616E63656C00496E697491
:102C5000004D34323800496E697469616C697A6577
:102C600020454550524F4D0046696C616D656E744C
:102C70000054656D706572617475726500544D43E2
:102C80002044726976657273004261636B6C617394
:102C9000680053746570732F6D6D0050726F6265BC
:102CA000204F666673657473004A65726B004163FA
:102CB00063656C65726174696F6E0056656C6F63F5
:102CC0006974790053657420486F6D65204F66669E
:102CD0007365747300436F6E6669677572617469BA
:102CE0006F6E00507265737320427574746F6E005E
:102CF000746F20726573756D65207072696E7400F3
:102D0000005761697420666F72207072696E74007A
:102D1000746F20726573756D652E2E2E00005761DD
:102D2000697420666F720066696C616D656E7420EF
:102D300070757267650000536E346B3300496E76B0
:102D4000616465727300427269636B6F75740041F0
:102D5000626F7574205072696E746572003E200057
:102D6000256C642E25696D00457874727564656400
:102D700020546F74616C003E20004C6F6E67657369
:102D800074204A6F622054696D65003E2000546FC4
:102D900074616C205072696E742054696D650043D3
:102DA0006F6D706C65746564003A20005072696ED6
:102DB0007420436F756E74003A200047616D65732F
:102DC000005072696E7465722053746174730050A0
:102DD00072696E74657220496E666F004D61696E2E
:102DE000004D313030300053746F70205072696E76
:102DF0007400526573756D65205072696E74005071
:102E00006F776572204F7574616765003F0042619E
:102E1000636B0053746F70005072696E7420667239
:102E20006F6D204D65646961004368616E67652060
:102E30004D65646961004D32310041626F757420E7
:102E40005072696E74657200546F6F6C20486561D2
:102E50006473004368616E67652046696C616D65E7
:102E60006E7400436F6E66696775726174696F6E28
:102E70000054656D7065726174757265004D6F7494
:102E8000696F6E00526573756D65205072696E745E
:102E9000004E6F204D656469610043616E63656C2F
:102EA000204F626A6563740054756E650053746FD9
:102EB00070205072696E7400506175736520507295
:102EC000696E7400496E666F2053637265656E00AB
:102ED0003F005374617274205072696E74004361D4
:102EE0006E63656C005072696E740043616E6E6F44
:102EF0007420656E746572207375626469723A201D
:102F000000022E2E004D61696E00590058004531B7
:102F1000005A0059004F6666004F6E005800544D2D
:102F200043204472697665727300537465616C74F2
:102F30006843686F7020456E61626C65640053740D
:102F4000657070696E67204D6F64650053656E73C0
:102F50006F726C65737320486F6D696E67004472A1
:102F6000697665722043757272656E74004164768D
:102F7000616E6365642053657474696E6773005095
:102F8000726F6265205A204F6666736574004164F3
:102F900076616E6365204B00466C6F770046616E0C
:102FA00020537065656400426564004E6F7A7A6CE8
:102FB00065005370656564004D61696E006F7065F2
:102FC0006E00545249474745524544003A20007A22
:102FD0005F6D696E00795F6D696E00785F6D696E17
:102FE000005265706F7274696E6720656E647374E9
:102FF0006F70207374617475730A00203A207379BE
:103000006E635F706C616E5F706F736974696F6E11
:103010000A00202063757272656E745F706F736949
:1030200074696F6E3D00206C696D6974656420740D
:103030006F2000204D61782000290A0050726F62D5
:10304000653A3A646F5F7A5F7261697365280064FC
:1030500065706C6F793A2000203A2050726F62657B
:103060003A3A7365745F6465706C6F7965640A00E1
:10307000202063757272656E745F706F7369746916
:103080006F6E3D00206D61783A00206D696E3A00E8
:10309000417869732000000028430000324300009B
:1030A0003443000060C0000028C2000000005365E7
:1030B0007474696E67732053746F72656400290AB3
:1030C000002062797465733B20637263200053654E
:1030D0007474696E67732053746F7265642028007E
:1030E000454550524F4D206461746173697A652083
:1030F0006572726F722E0A00290A00206279746567
:10310000733B2063726320002073746F72656420C8
:1031100073657474696E677320726574726965761D
:103120006564202800202863616C63756C61746598
:103130006429210A0020213D2000454550524F4D71
:1031400020435243206D69736D61746368202D20A4
:103150002873746F7265642920002053697A653A78
:103160002000496E6465783A200044494749504F31
:103170005453204C6F616465640A004449474950C8
:103180004F5453204C6F6164696E670A00204D6193
:10319000726C696E3D563832290A00454550524FCF
:1031A0004D2076657273696F6E206D69736D617401
:1031B00063682028454550524F4D3D003E20006435
:1031C0006F5F626C6F636B696E675F6D6F76655F73
:1031D000746F0020746F6F206C6F6E672065787459
:1031E000727573696F6E2070726576656E74656452
:1031F0000A0020636F6C6420657874727573696F60
:103200006E2070726576656E7465640A00486F6D35
:1032100065202573257325732046697273740048F1
:103220006F6D696E67204661696C656400290A00EC
:103230005D005B002C20002C20002E2E2E28006428
:103240006F5F686F6D696E675F6D6F766500576160
:10325000726E696E673A20486F6D696E67204275BD
:103260006D702044697669736F72203C20310A00CA
:10327000020204290A003C3C3C207365745F6178BB
:1032800069735F69735F61745F686F6D65280020A3
:103290003A200A00202063757272656E745F706F49
:1032A000736974696F6E3D005D203D20003E2068AB
:1032B0006F6D655F6F66667365745B002A2A2A20EE
:1032C0005A20484F4D454420574954482050524FAA
:1032D000424520285A5F4D494E5F50524F42455F4C
:1032E000555345535F5A5F4D494E5F454E445354C5
:1032F0004F505F50494E29202A2A2A0A3E207072D8
:103300006F62652E6F66667365742E7A203D2000AD
:10331000000060C0000028C200000000290A003E32
:103320003E3E207365745F617869735F69735F61A6
:10333000745F686F6D652800290A003C3C3C20687A
:103340006F6D65617869732800203A203E20414600
:10335000544552207365745F617869735F69735F68
:1033600061745F686F6D650A002020637572726515
:103370006E745F706F736974696F6E3D006D6D0A76
:103380000052652D62756D703A20006D6D0A004D1A
:103390006F766520417761793A20000000A04000F7
:1033A00000A040000000406D6D0A00486F6D652070
:1033B000466173743A200000802B4300005C430098
:1033C0000034436D6D0A0053656E736F726C6573E4
:1033D00073206261636B6F66663A2000FFFFFF290E
:1033E0000A003E3E3E20686F6D6561786973280073
:1033F00020706F736974696F6E5F7368696674209B
:103400003D200020686F6D655F6F66667365742090
:103410003D20004178697320004C6F6164206D6D20
:1034200000556E6C6F6164206D6D0046696C2E20D6
:103430004469612E004520696E206D6D5E33004148
:103440006476616E6365204B004D33303320553117
:103450002045256920532569005049442041757451
:103460006F74756E65202A005049442D44202A004F
:103470005049442D49202A005049442D50202A000B
:1034800020082046616374002008204D61780020E8
:1034900008204D696E004F6666004F6E00417574DE
:1034A0006F74656D70005654726176204D696E00C0
:1034B000566D696E00566D6178204500566D6178D5
:1034C000205A00566D6178205900566D6178205859
:1034D000002100486F74656E6420746F6F20636F05
:1034E0006C64004261636B0050726F6365656400D9
:1034F0004D6F74696F6E0044697361626C6520532F
:1035000074657070657273004D3834004D34382026
:1035100050726F6265205465737400473238204FD3
:103520000A4D3438205031300046616465204865CA
:1035300069676874004F6666004F6E0042656420DC
:103540004C6576656C696E67004C6576656C2042EB
:103550006564004732380A473239004175746F207C
:103560005A2D416C69676E0047333400486F6D65B2
:10357000205A004732385A00486F6D65205900477D
:1035800032385900486F6D6520580047323858006E
:103590004175746F20486F6D6500473238004D618A
:1035A000696E0050726568656174202420456E6400
:1035B000005072656865617420242042656400547F
:1035C000656D706572617475726500436F6F6C64D0
:1035D0006F776E00507265686561742024004661E3
:1035E0006E20537065656400426564004E6F7A7AA0
:1035F0006C65004D61696E004531005A00590058F4
:103600000050726F6265204F6666736574205A00C1
:1036100050726F6265204F6666736574205A002988
:103620000A0020746F20003F5A206F7574206F6667
:103630002072616E6765202800290A0020746F20BF
:10364000003F59206F7574206F662072616E676548
:1036500020282D00290A0020746F20003F58206F79
:103660007574206F662072616E676520282D00508A
:10367000726F6265204F6666736574205800205033
:10368000006F6B00526573656E643A200043616E93
:103690006E6F74206F70656E20737562646972203E
:1036A000002569730025696D202569730025696807
:1036B0002025696D202569730025696420256968C6
:1036C0002025696D202569730025697920256964A5
:1036D000202569682025696D20256973000A5374C7
:1036E0006174733A2046696C616D656E7420757300
:1036F00065643A20002C204C6F6E67657374206AF5
:103700006F623A2000546F74616C2074696D653A81
:10371000200053746174733A20002C204661696C58
:1037200065643A20002C2046696E69736865643AC6
:1037300020005072696E74733A2000537461747380
:103740003A2000436F6F6C696E672E2E2E0048651D
:103750006174696E672E2E2E004520255300205778
:103760003A0042656420436F6F6C696E672E2E2E9F
:10377000004265642048656174696E672E2E2E00D4
:1037800023646566696E652044454641554C545F27
:1037900000626564004B6420004B6920004B702080
:1037A00000504944204175746F74756E65206669D8
:1037B0006E69736865642120507574207468652093
:1037C0006C617374204B702C204B6920616E6420F7
:1037D0004B6420636F6E7374616E74732066726FD6
:1037E0006D2062656C6F7720696E746F20436F6E19
:1037F00066696775726174696F6E2E680A00504958
:1038000044204175746F74756E65206661696C65DE
:1038100064212074696D656F75740A0050494420F5
:103820004175746F74756E65206661696C6564219D
:103830002054656D706572617475726520746F6F68
:1038400020686967680A00204B643A2000204B69B1
:103850003A2000204B703A20000A20436C617373B9
:10386000696320504944200A00204B643A2000201C
:103870004B693A2000204B703A20000A204E6F20FE
:103880006F76657273686F6F740A002054753A2002
:1038900000204B753A2000206D61783A2000206DA1
:1038A000696E3A200020643A200020626961733A10
:1038B0002000504944204175746F74756E65207303
:1038C000746172740A00504944204175746F7475B4
:1038D0006E65206661696C6564212054656D706554
:1038E00072617475726520746F6F20686967680A09
:1038F00000504944204175746F74756E65005049DD
:1039000044204175746F74756E65206661696C65DD
:103910006421204261642065787472756465722048
:103920006E756D6265720A002E0A0044656C6574DE
:10393000696F6E206661696C65642C2046696C65F0
:103940003A200046696C652064656C657465643A6C
:10395000005344207072696E74696E6720627974D6
:103960006520004E6F74205344207072696E746934
:103970006E670A002F6175746F25632E670057729A
:103980006974696E6720746F2066696C653A2000FF
:10399000667265736800646F696E67002066696CA3
:1039A000653A20004E6F772000000020002300269B
:1039B0000029002C002F0032000001000003010646
:1039C000010901107CFEFEFE44402480000031808D
:1039D00000002480444004000E000E007FC0FFE081
:1039E000FFE0FFE0FFE01FC07FF0DDD8FFF87FF0D1
:1039F00006000F001F8036C03FC009001680294016
:103A000006000F001F8036C03FC016802040108087
:103A1000104008801FC037607FF05FD050500D808D
:103A2000104048905FD077707FF01FC0104020207A
:103A30000F007FE0FFF0E670FFF0198036C0C03065
:103A40000F007FE0FFF0E670FFF0198036C01980AC
:103A500000FE0003FF8007C7C00701E00000E00090
:103A600000F00000700400700E00701F00703F80B6
:103A7000F00E00E00F01E007C7C003FF8000FE006A
:103A800000FE0003FF8007C7C00F01E00E00E03F0B
:103A900080F01F00700E00700400700000700000C5
:103AA000F00000E00701E007C7C003FF8000FE0050
:103AB0000E000E000E000E000E000E000E000E0096
:103AC0007FC03F801F000E00040004000E001F0096
:103AD0003F807FC00E000E000E000E000E000E0094
:103AE0000E000E00FFFFFF7F80FFC0FFC0FFC07F02
:103AF000807F80FFC0FFC0FFC03F001E000C005051
:103B0000726F6265205A204F666673657400554E69
:103B10004C4F41442046494C414D454E54004C4F7A
:103B200041442046494C414D454E540046494C4184
:103B30004D454E54204348414E47450052657374ED
:103B40006F72652044656661756C7473004C6F61BB
:103B5000642053657474696E67730053746F726583
:103B60002053657474696E6773005072656865618F
:103B700074202420436F6E66004F6666004F6E000F
:103B8000506F776572204F75746167650052657478
:103B90007261637400424C546F75636800436F6ECA
:103BA00074726F6C6C65722046616E0050726F6249
:103BB00065205A204F666673657400416476616EB5
:103BC0006365642053657474696E6773004D616941
:103BD0006E004D3932453432300A4D32303658306D
:103BE00059300A4D3330315032362E323949322E67
:103BF00035374437322E35390A4D39303645393666
:103C0000300A4D3530300A4D31313720546F6F6CEA
:103C1000204368616E676564004D39324534323047
:103C20000A4D323036583059300A4D333031503227
:103C3000362E393049322E34314437352E31390A57
:103C40004D393036453936300A4D3530300A4D3130
:103C5000313720546F6F6C204368616E6765640074
:103C60004D3932453431350A4D323036582D3559BB
:103C70002D31320A4D333031503134382E303749FE
:103C800032362E3538443230362E32310A4D393004
:103C900036453936300A4D3530300A4D313137200E
:103CA000546F6F6C204368616E676564004D3932F4
:103CB000453432300A4D323036583059300A4D339F
:103CC00030315032312E3049312E37384436312E92
:103CD00039330A4D393036453936300A4D353030B2
:103CE0000A4D31313720546F6F6C204368616E6725
:103CF0006564004D3932453432300A4D3230365821
:103D00003059300A4D3330315032312E3049312E56
:103D100037384436312E39330A4D39303645393645
:103D2000300A4D3530300A4D31313720546F6F6CC9
:103D3000204368616E676564004D39324534323026
:103D40000A4D323036583059300A4D333031503206
:103D5000312E3049312E37384436312E39330A4D21
:103D6000393036453936300A4D3530300A4D31312B
:103D70003720546F6F6C204368616E676564004D37
:103D80003932453432300A4D323036583059300AE3
:103D90004D3330315032312E3049312E37384436A0
:103DA000312E39330A4D393036453936300A4D35E2
:103DB00030300A4D31313720546F6F6C20436861C9
:103DC0006E676564004D3932453432300A4D323009
:103DD00036583059300A4D3330315032312E304957
:103DE000312E37384436312E39330A4D3930364585
:103DF0003936300A4D3530300A4D31313720546F65
:103E00006F6C204368616E6765640048537C302E98
:103E100038306D6D7C48524420535445454C004821
:103E2000457C302E35306D6D7C48524420535445CE
:103E3000454C0053457C302E35306D6D7C4E4B4CDF
:103E40002D504C20435500534C7C302E32356D6D37
:103E50007C4E4B4C2D504C204355004D3137357C1A
:103E6000302E35306D6D7C43524220435500534B0C
:103E70003238357C302E35306D6D7C425241535393
:103E80000048532B7C312E32306D6D7C48524420DB
:103E9000535445454C00534B3137357C302E35302B
:103EA0006D6D7C4252415353004D61696E004D3738
:103EB000303220542564004D3630302042302054BA
:103EC0002564004D373032203B2564004D373031BA
:103ED00020542564004D373032004D373031004DCD
:103EE000363030204230004D61696E00436F6E7491
:103EF000696E7565005075726765206D6F7265003B
:103F0000524553554D45204F5054494F4E533A005A
:103F10005052494E54205041555345440020204EA4
:103F20006F7A7A6C653A20005061726B696E672E09
:103F30002E2E0000005761697420666F720066695A
:103F40006C616D656E74206368616E676500746F87
:103F5000207374617274005761697420666F720017
:103F600066696C616D656E7420756E6C6F6164005E
:103F7000004E6F7A7A6C652068656174696E6700BF
:103F8000506C6561736520776169742E2E2E000078
:103F9000507265737320627574746F6E00746F2055
:103FA00068656174206E6F7A7A6C650000496E7383
:103FB0006572742066696C616D656E7400616E6413
:103FC00020707265737320627574746F6E00746F05
:103FD00020636F6E74696E75650057616974206641
:103FE0006F720066696C616D656E74206C6F6164E0
:103FF000000041425300504C4100000021002400C9
:1040000027002A002D0030003300010100000401C8
:1040100007010A0100002200250028002B002E00C5
:104020003100340002010000050108010B01050503
:104030000505070508080808020202020A0A08081E
:10404000040404040101010101010101030303034C
:1040500003030303040707070C0C0C0C0C0C0C0CDB
:104060000202020206060606060606060B0B0B0BEC
:104070000B0B0B0B01021020200808102040102011
:10408000408002010201080402010102040810201C
:10409000408080402010080402018004020180401A
:1040A0002010080402010804020101020408102083
:1040B0004080010204081020408000000A0B020921
:1040C0000C0D0E08070304010000000000000000B2
:1040D00000000000000000000000000000000000E0
:1040E000000000000000121110000000000000009D
:1040F00000000000000000000000000000000000C0
:10410000004D6F76652025736D6D004D6F766520CF
:10411000302E316D6D004D6F766520316D6D004D27
:104120006F76652031306D6D004D6F76652041787A
:104130006973004578747275646572004D6F7665B9
:10414000205A004D6F76652059004D6F76652058D6
:1041500000F63FF23F4368616E67652046696C6117
:104160006D656E7400556E6C6F61642046696C619C
:104170006D656E74004C6F61642046696C616D659D
:104180006E74005072656865617420437573746F56
:104190006D00507265686561742024004261636B34
:1041A000005072696E742066726F6D204D6564698F
:1041B000610020453A00205A3A0020593A00583A06
:1041C0000020746F6F206C6F6E6720657874727555
:1041D00073696F6E2070726576656E7465640A002F
:1041E00020636F6C6420657874727573696F6E20DC
:1041F00070726576656E7465640A00202D20496EC4
:1042000076616C6964206578747275646572206E7D
:10421000756D62657220210A001000AD0330016ADD
:104220000150022B0170030A019004F500B005E56E
:1042300000D006D800F007CE001009C500300ABE35
:1042400000500BB700700CB100900DAB00B00EA683
:1042500000D00FA200F0109D0010129900301395AD
:10426000005014920070158E0090168B00B01787C6
:1042700000D0188400F0198100101B7E00301C7BD8
:1042800000501D7900701E7600901F7300B02070E2
:1042900000D0216E00F0226B0010246900302566EA
:1042A00000502663007027610090285E00B0295CF2
:1042B00000D02A5900F02B5600102D5400302E51FA
:1042C00000502F4E0070304B0090314800B0324506
:1042D00000D0334200F0343E0010363B0030373718
:1042E000005038330070392E00903A2900B03B233B
:1042F00000D03C1B00F03D1100103F0100F03F00DA
:10430000004572723A204D415854454D50004D4180
:104310005854454D50207472696767657265640032
:104320004572723A204D494E54454D50004D494E0C
:1043300054454D502074726967676572656400204A
:104340002F002042403A0020403A0020573A007C9B
:104350003C3E5E2B3D3F2F5B5D3B2C2A225C005494
:104360004845524D414C2052554E415741590054F9
:104370006865726D616C2052756E617761790000BD
:10438000000000000000000000000000000000002D
:10439000000000000000000000000000000000001D
:1043A00000000C000000000000000C0000000000F5
:1043B00000001200000000000000230000000000C8
:1043C000000021000000000000004C800000000000
:1043D00000005E800000000000009240000000002D
:1043E0000000A140000000000001212000000000AA
:1043F00000027F900000000000020010000000009A
:104400000007FFF8000000000004000800000000A2
:104410000008000400000000000800060000000082
:10442000001000020000000000301E01000000002B
:1044300000207F81000000000041FFE080000000BC
:104440000043FCF08000000000873B784000000043
:10445000018EDBFC60000000010FEBCC20000000AF
:10446000021FEDB610000000021FDEB610000000B3
:104470000439CD7F080000000436E0FF080000008A
:10448000087EC0BB84000000187F005D860000002D
:10449000107FC0ED82000000203CC07301000000CE
:1044A000203B337F01000000701BE77E038000008B
:1044B000C81DEEDE04C00000880FDEDC04400001F1
:1044C000240FDF3C092000012607DBF81920000239
:1044D0007203E7F0139000025101FFE02290000404
:1044E00089007F802448000904801E004824000BB6
:1044F000FE400000DFF40010004000008002001FBA
:10450000FFFFFFFFFFFE00000000000000000000B2
:10451000000000000000000000000000000000108B
:1045200022103C3C0E1F0010221004221104001027
:1045300022100822110400102210083C110400105F
:104540002210102211040010221020221104001E3B
:104550001C1E3C3C0E040000000000000000000097
:10456000000000000000000000000000000000004B
:10457000000000000000000000000000000000003B
:10458000000000000000000000000000000000002B
:10459000000000000000000000000000000000001B
:1045A000000000000000000000000000000000000B
:1045B000000000000000000000000000001000C922
:1045C0000210012C014001220170011801B0010EFE
:1045D00001F00104015002FA00B002F0003003E6DD
:1045E00000D003DC009004D2007005C800A006BE15
:1045F000000008B400B009AA00D00BA000600E961D
:104600000060118C000015820020197800C01D6E1A
:1046100000A0226400B0275A00902C5000003146C0
:1046200000E0343C0010383200903A2800603C1E14
:1046300000A03D1400803E0A00203F0000473238B1
:104640002058002020506C616E6E6572427566665F
:10465000657242797465733A200020467265652060
:104660004D656D6F72793A2000436F6D70696C65AE
:10467000643A2041707220313420323032310A00E5
:10468000204C61737420557064617465643A203203
:104690003032302D30382D3039207C20417574680F
:1046A0006F723A204C756C7A626F740A00322E3049
:1046B0002E362E320A004D61726C696E0020536FE7
:1046C0006674776172652052657365740A002057BD
:1046D00061746368646F672052657365740A0020B3
:1046E00042726F776E206F75742052657365740A1D
:1046F000002045787465726E616C20526573657434
:104700000A00506F77657255700A00737461727495
:104710000A004732385859004D3130303100657247
:10472000726F722077726974696E6720746F206689
:10473000696C650A00446F6E6520736176696E6707
:104740002066696C652E0A004D323900456E64732F
:10475000746F707300255320256320256320256323
:1047600020256300205A3A0020593A0020583A0088
:10477000656E6473746F7073206869743A200020EA
:10478000436F756E7420583A0042656400453100ED
:10479000626564002C2073797374656D2073746F87
:1047A0007070656421204865617465725F49443AA0
:1047B000200048656174696E67204661696C6564B4
:1047C0000048656174696E67206661696C656400A4
:1047D0004D3131322053687574646F776E004265D5
:1047E0006400456E636C6F73757265001FE0201086
:1047F00020102010102010202010201030300840F1
:10480000048003001FE03FF03FF03FF01FE01FE097
:104810003FF03FF03FF00FC0078003003FFFF83E3E
:1048200018F8381F38301F98341F182E1E082F1CF8
:10483000082FB8083FFC083FFFF8207FF8203BE82E
:104840002071E820F0E831F05833F01839F0383EA4
:1048500030F83FFFF83FFFF83E30F839F03831F0DC
:104860001830F01820F0682031E82039E8207FF86F
:104870003FFFF83FFC082F38082E18082C1E083080
:104880001E18301F18381F383E18F83FFFF83FFF3A
:10489000F83E00F83901383783D83783D82FC7E876
:1048A00027C7C821FF08207C08207C08207C08211D
:1048B000FF0827C7C82FC7E83783D83783D83901FF
:1048C000383E00F83FFFF8FFFFC0400020200010F6
:1048D00010000808000404000203FFFF0222000485
:1048E0004400044400022200011100FFFFC0408880
:1048F000A021111012220808000404000203FFFF87
:1049000043616E6E6F74206F70656E2073756264A4
:1049100069722000534420496E6974204661696CB5
:104920000053442063617264206F6B0A006F7065EE
:104930006E526F6F74206661696C65640A00766FF1
:104940006C756D652E696E6974206661696C65644D
:104950000A004E6F20534420636172640A000A4DBE
:104960003234004D3233202573002E0A006F7065FB
:104970006E206661696C65642C2046696C653A201E
:104980000046696C652073656C65637465640A0034
:104990002053697A653A200046696C65206F70651E
:1049A0006E65643A2000454E4420535542524F559F
:1049B00054494E450A002220706F73002220706116
:1049C00072656E743A2200535542524F5554494E07
:1049D000452043414C4C207461726765743A220053
:1049E00053756263616C6C204F766572666C6F778D
:1049F000004578636565646564206D617820535572
:104A000042524F5554494E452064657074683A00CF
:104A10006E6F74696669636174696F6E20006E6F92
:104A200074696669636174696F6E200063616E63A7
:104A3000656C005072696E742041626F72746564B7
:104A4000004469736D6973730055492041626F7248
:104A5000746564004D323520500A4D323400526581
:104A600073756D650055492050617573650050611F
:104A70007573696E672E2E2E00726573756D6500F5
:104A80004D3234006F6F6F00000047414D45204F9D
:104A90005645520024F4D43050C38E20C2A2401791
:104AA000828B7011127A910D816CD90AA861E1088C
:104AB000C7586607615143061E4B5D05C145A704F3
:104AC0001A411104093D9803713931034036DB0264
:104AD00065339102D4305402802E1D02632CEE0106
:104AE000752AC501B028A001102781018F25640116
:104AF0002B244B01E0223401AC211F018D200D013C
:104B0000801FFC00841EED00971DDF00B81CD20042
:104B1000E61BC600201BBC00641AB200B219A80034
:104B20000A19A0006A189900D117910040178B004C
:104B3000B516840031167E00B31579003A1573005E
:104B4000C7146F0058146A00EE13660088136300E0
:104B500025135E00C7125B006C125700151254003B
:104B6000C111510070114F0021114B00D6104900A6
:104B70008D1047004610440002104200C00F400054
:104B8000800F3E00420F3C00060F3B00CB0E38006A
:104B9000930E37005C0E3500270E3400F30D320003
:104BA000C10D3100900D3000600D2E00320D2D0032
:104BB000050D2C00D90C2B00AE0C2900850C29000A
:104BC0005C0C2700350C27000E0C2600E80B240097
:104BD000C40B2400A00B23007D0B23005A0B2100E3
:104BE000390B2100180B2000F80A1F00D90A1E00FB
:104BF000BB0A1E009D0A1D00800A1D00630A1C00DE
:104C0000470A1B002C0A1B00110A1A00F7091A0098
:104C1000DD091900C4091900AB0919009209170030
:104C20007B091800630917004C09160036091600A5
:104C3000200916000A091500F5081500E0081400FF
:104C4000CC081400B8081400A4081400900813003D
:104C50007D0812006B081300580812004608120065
:104C60003408110023081100120811000108110076
:104C7000F0071000E0071000D0071000C007100078
:104C8000B0070F00A107100091070E0083070F0067
:104C900074070F0065070E0057070E0049070E0046
:104CA0003B070D002E070E0020070D0013070D0017
:104CB00006070D00F9060C00ED060D00E0060C00DD
:104CC000D4060C00C8060C00BC060C00B0060C0094
:104CD000A4060B0099060C008D060B0082060B0043
:104CE00077060B006C060B0061060A0057060B00E6
:104CF0004C060A0042060A0038060A002E060A0080
:104D000024060A001A060A001006090007060A000F
:104D1000FD050900F4050900EB050900E20509009D
:104D2000D9050900D0050900C7050900BE0509001D
:104D3000B5050800AD050800A50509009C0508009B
:104D4000940508008C050800840508007C0508000F
:104D5000740508006C050700650508005D0507007F
:104D6000560508004E0507004705070040050800E6
:104D700038050700310507002A050700230507004D
:104D80001C050600160507000F05070008050600AC
:104D900002050700FB040600F5040700EE04060008
:104DA000E8040600E2040700DB040600D504060060
:104DB000CF040600C9040600C3040600BD040600B3
:104DC000B7040600B1040500AC040600A604060002
:104DD000A00405009B04060095040500900406004D
:104DE0008A04050085040500800406007A04050095
:104DF00075040500700405006B04050066040500D9
:104E0000610405005C040500570405005204050018
:104E10004D04050048040500430405003E04040059
:104E20003A04050035040500300404002C04050094
:104E300027040400230405001E0404001A040400CF
:104E400016040500110404000D0404000904050003
:104E50000404040000040400FC030400F80304003C
:104E6000F4030400F0030400EC030400E80304006E
:104E7000E4030400E0030400DC030400D80304009E
:104E8000D4030400D0030400CC030400C8030300CF
:104E9000C503030024F404D9201BC40C5C0E980441
:104EA000C4095F0265077101F405F900FB04B30052
:104EB00048048700C10369005803550003034500F7
:104EC000BE023A008402310053022A002902250062
:104ED00004022000E4011C00C8011900AF01170002
:104EE0009801140084011300710110006101100089
:104EF00051010E0043010D0036010B002B010B0088
:104F000020010B00150109000C0109000301080034
:104F1000FB000800F3000800EB000700E4000600B7
:104F2000DE000600D8000600D2000600CC00050016
:104F3000C7000500C2000500BD000400B900040060
:104F4000B5000400B1000400AD000400A900040095
:104F5000A5000300A20003009F0004009B000300C3
:104F600098000300950002009300030090000300E6
:104F70008D0002008B000300880002008600020002
:104F800084000300810002007F0002007D00020017
:104F90007B00020079000200770001007600020029
:104FA0007400020072000100710002006F00020034
:104FB0006D0001006C0002006A000100690002003F
:104FC0006700010066000100650001006400020046
:104FD0006200010061000100600001005F0002004A
:104FE0005D0001005C0001005B0001005A0001004F
:104FF000590001005800010057000100560001004F
:10500000550001005400010053000000530001004E
:105010005200010051000100500001004F0001004A
:105020004E0000004E0001004D0001004C00010048
:105030004B0000004B0001004A0001004900010044
:105040004800000048000100470001004600000041
:105050004600010045000000450001004400010039
:105060004300000043000100420000004200010034
:105070004100000041000100400001003F0000002D
:105080003F0001003E0000003E0001003D00000026
:105090003D0001003C0000003C0000003C0001001D
:1050A0003B0000003B0001003A0000003A00010014
:1050B000390000003900010038000000380000000D
:1050C0003800010037000000370001003600000002
:1050D00036000000360001003500000035000000F9
:1050E00035000100340000003400000034000100ED
:1050F00033000000330000003300010032000000E4
:1051000032000000320001003100000031000000D8
:1051100031000100300000003000000030000100CC
:105120002F0000002F0000002F0000002F000100C2
:105130002E0000002E0000002E0001002D000000B7
:105140002D0000002D0000002D0001002C000000AB
:105150002C0000002C0000002C0001002B0000009F
:105160002B0000002B0000002B0001002A00000093
:105170002A0000002A0000002A0001002900000087
:10518000290000002900000029000000290001007A
:10519000280000002800000028000000280000006F
:1051A0002800010027000000270000002700000061
:1051B0002700000027000100260000002600000054
:1051C0002600000026000000260001002500000047
:1051D000250000002500000025000000250000003B
:1051E000250001002400000024000000240000002D
:1051F0002400000024000100230000002300000020
:105200002300000023000000230000002300000012
:105210002300010022000000220000002200000004
:1052200022000000220000002200010021000000F6
:1052300021000000210000002100000021000000EA
:1052400021000000210001002000000020000000DB
:1052500020000000200000002000000020000000CE
:1052600020000000200001001F0000001F000000BF
:105270001F0000001F0000001F0000001F000000B2
:105280001F0001001E0000001E0000001E000000A4
:105290001E000000C23100001C260000F4190000AE
:1052A000D80F0000EB080000C004000075020000E9
:1052B00040010000506C6561736520526573657430
:1052C000005052494E5445522048414C54454400E8
:1052D00025533A20255300706F7765726F6666001C
:1052E0004B494C4C45442E20005072696E746572D7
:1052F0002068616C7465642E206B696C6C282920B1
:1053000063616C6C6564210A0053544F50504544EE
:105310002E20005072696E7465722073746F707005
:1053200065642064756520746F206572726F727396
:105330002E2046697820746865206572726F72202D
:10534000616E6420757365204D39393920746F2082
:10535000726573746172742E202854656D70657265
:1053600061747572652069732072657365742E208F
:105370005365742069742061667465722072657368
:1053800074617274696E67290A006563686F3A0018
:105390004572726F723A0066616C73650074727563
:1053A0006500202864697361626C6564290A0020C5
:1053B000280041424C2041646A7573746D656E74B7
:1053C000205A005A20466164653A20002028656E04
:1053D00061626C6564290A0041626F766500536101
:1053E0006D65205A2061730042656C6F77004175CE
:1053F000746F20426564204C6576656C696E673A0F
:105400002042494C494E45415200204E6F7A7A6CF9
:1054100065290A00202620002D43656E7465720000
:105420002D46726F6E74002D4261636B002028411F
:105430006C69676E656420576974680020284D693F
:1054400064646C650020284C6566740020285269ED
:105450006768740050726F6265204F66667365748A
:1054600020580050726F62653A20424C544F5543A9
:10547000480A004D616368696E6520547970653A29
:105480002043617274657369616E0A005D0A0045AC
:1054900078747261706F6C617465205B0042696C36
:1054A000696E656172204C6576656C696E67204730
:1054B0007269643A0A00203A202E2E2E4E6F772011
:1054C0004F4E0A00202063757272656E745F706FB4
:1054D000736974696F6E3D00203A204C6576656C87
:1054E000696E67204F46460A002020637572726518
:1054F0006E745F706F736974696F6E3D00203A203F
:105500002E2E2E4E6F77204F46460A0020206375C0
:105510007272656E745F706F736974696F6E3D004F
:10552000203A204C6576656C696E67204F4E0A0004
:10553000202063757272656E745F706F7369746931
:105540006F6E3D002044697363726570616E6379AC
:105550003A00326E642050726F6265205A3A0053EE
:105560004C4F57003173742050726F6265205A3A65
:1055700000464153540050726F62653A3A72756E3C
:105580005F7A5F70726F62650050726F62696E67FA
:10559000204661696C656400205A3A200020593A1F
:1055A000200042656420583A2000506F7369746986
:1055B0006F6E204E6F7420526561636861626C6526
:1055C0000A00203A200A00202063757272656E740A
:1055D0005F706F736974696F6E3D005F72656C61B7
:1055E00074697665290A002C20002C20002C2000EC
:1055F0002C20002E2E2E280050726F62653A3A70D1
:10560000726F62655F61745F706F696E7400507273
:105610006F62653A3A70726F62655F646F776E5F52
:10562000746F5F7A002054726967676572656420E1
:105630006561726C792E00204E6F20747269676705
:1056400065722E002050726F6265206661696C2160
:10565000202D0070726F6D70745F0073686F77003B
:10566000627574746F6E00626567696E0050757262
:1056700067654D6F72650050617573656400436FB7
:105680006E74696E7565004C6F61642046696C616B
:105690006D656E74205400496E736572742066697E
:1056A0006C616D656E7420616E642073656E64203C
:1056B0004D3130380A003C3C3C00220A00556E6BEC
:1056C0006E6F776E20636F6D6D616E643A2022009D
:1056D00054617A20536964654B69636B20323839B1
:1056E0002052656164792E005072696E74696E672C
:1056F0002E2E2E005072696E742050617573656491
:10570000004D3230362058004D3230365A203A2083
:10571000004D32303659203A20004D323036582074
:105720003A20004F666673657473204170706C692F
:105730006564004572723A20546F6F206661722171
:1057400000546F6F206661722066726F6D20726503
:10575000666572656E636520706F696E740A0044D9
:105760006966663A2020200046726F6D5374703A65
:1057700000537465707065723A00556E4C657665BD
:105780006C3A004C6576656C65643A005261773A14
:1057900020202020000A4C6F676963616C3A004347
:1057A0006F756E7420453A004361703A004348417A
:1057B0004D4245525F54454D504552415455524516
:1057C00000424142595354455050494E47004152BE
:1057D0004353004D4F54494F4E5F4D4F4445530086
:1057E000544845524D414C5F50524F5445435449E3
:1057F0004F4E004C4F4E475F46494C454E414D453C
:10580000004155544F5245504F52545F53445F53DB
:10581000544154555300524550454154005344435C
:105820004152440050524F4D50545F535550504FC9
:10583000525400454D455247454E43595F504152E1
:1058400053455200434153455F4C494748545F42DA
:1058500052494748544E45535300544F47474C45CF
:105860005F4C494748545300534F465457415245A3
:105870005F504F574552004255494C445F50455286
:1058800043454E54004C4556454C494E475F4441B4
:105890005441005A5F50524F42450052554E4F55A9
:1058A00054004155544F4C4556454C005052494EBA
:1058B000545F4A4F420050524F47524553530041A4
:1058C00055544F5245504F52545F54454D50005619
:1058D0004F4C554D455452494300454550524F4D4C
:1058E0000042494E4152595F46494C455F5452412E
:1058F0004E534645520053455249414C5F584F4E16
:105900005F584F4646004649524D574152455F4EFB
:10591000414D453A4D61726C696E20204649524DA9
:10592000574152455F56455253494F4E3A322E30F9
:105930002E362E322045585452554445525F545904
:1059400050453A556E6976657273616C20534F55B8
:105950005243455F434F44455F55524C3A67697423
:105960006875622E636F6D2F4D61726C696E46694A
:10597000726D776172652F4D61726C696E20505245
:105980004F544F434F4C5F56455253494F4E3A3157
:105990002E30204D414348494E455F545950453AB9
:1059A00054617A20536964654B69636B20323839DE
:1059B0002045585452554445525F434F554E543A32
:1059C0003120555549443A32633662623730652D8D
:1059D000323065662D346662312D393632642D637E
:1059E00037316434306531373662360A0047322F3A
:1059F00047332062616420706172616D6574657205
:105A0000730A00454550524F4D20496E69746961D3
:105A10006C697A65640A0048617264636F646564E6
:105A20002044656661756C742053657474696E6793
:105A300073204C6F616465640A00000096430000A7
:105A4000964300009643000020420000C842000038
:105A5000C842000048430000D24328230000282306
:105A6000000064000000282300003B20003A0A00E8
:105A700020204D3930360020204D3931340020208F
:105A80004D3536392053310020204D36303320003B
:105A900020530020204D3432352046004261636B94
:105AA0006C61736820636F6D70656E736174696F8C
:105AB0006E3A002055004C0046696C616D656E744D
:105AC000206C6F61642F756E6C6F6164206C656E05
:105AD000677468733A0020204D393030204B004CF9
