:100000000C94722F0C94A32F0C94A32F0C94A32F59
:100010000C94A32F0C94A32F0C94A32F0C94A32F18
:100020000C94A32F0D943C830D943C830D943C833E
:100030000C94A32F0C94A32F0C94A32F0C94A32FF8
:100040000C94A32F0D9459860C94A32F0C94A32FDA
:100050000C94A32F0C94A32F0D946D370D940E4D7B
:100060000C94A32F0C9408550C94D3540C94A32FE8
:100070000C94A32F0C94A32F0C94A32F0C94A32FB8
:100080000C9415480C94A32F0C94A32F0C94A32F1D
:100090000C94A32F0C94A32F0C94A32F0C94A32F98
:1000A0000C94A32F0C94A32F0C94E7470C94A32F2C
:1000B0000C94A32F0C94A32F0C94A32F0C94A32F78
:1000C0000C94A32F0C94A32F0C94A32F0C94A32F68
:1000D0000C94A32F0C94A32F0C94A32F0C94A32F58
:1000E0000C94A32F83458145A545A245A045D7453E
:1000F000D445D2453046FE45FB45F945144C194CD4
:100100001E4C284C324CAB4C3C4C444C4C4C564C4A
:10011000604C6A4C794C834CAB4C8D4C974CA14C49
:100120003E555055625573557B55AE557F55AE556E
:1001300083558755AE558B558F5593559C55AE5568
:10014000A755428CDA8A138B7E8C138B138B138BFF
:10015000138B138B138B138B138B138B138B138BAF
:10016000138B138B138B138B138B138B138B138B9F
:10017000138B138B138B138B138B138B138B788C29
:10018000138B138B138B138B138B138B138B138B7F
:10019000518C138B138B138B138B138B138B138B30
:1001A000138B138B138B958C108B590127037701BD
:1001B0006B018702D302A1023B0295024F015D0150
:1001C0004702D102090319019D01BB019B01930262
:1001D000E5014302EF019301BB02750265019B013A
:1001E000DB0119031F01084AD73B3BCE016E84BCDB
:1001F000BFFDC12F3D6C74319ABD56833DDA3D0081
:10020000C77F11BED9E4BB4C3E916BAAAABE0000C9
:1002100000803F05A84CCDB2D44EB93836A9020CA7
:1002200050B9918688083CA6AAAA2ABE0000008080
:100230003F000D9467830C9448DD0D94265E0D9469
:10024000AA830C9483450C943E550D94EC110C94A8
:10025000FDD80C9435E30C94D5940D944B5D0C941F
:10026000DB940C9407B30C94738A0D948A5E0D94FE
:10027000762A0D94522C0D94D76F0D9471270D94FE
:1002800047720C94284C0D945F720C94D7450C94D3
:10029000F0CB0C9418D90D94EB6F0D9463720D9400
:1002A000A5760C94B9E00D942A2C0C9424980D9406
:1002B0008A270D94A7760C948EDB0D9492760C947D
:1002C0005EA00C94138B0D943F270D949C830C948B
:1002D000C3940C945C920D94AA760D941D260C94F4
:1002E0009DDB0D945B720C9498DB0C944DE30D94A4
:1002F00083760C9465CB0C94DA8A0C94BBD80C945E
:10030000B3D80C94CEA10C9458E30D94E06F0D94E7
:10031000C4750C94F9450D944F720C9406B80C9466
:10032000A19A0C9441DC0D948E830C946A920D94E6
:1003300057720C94A0450D94AF830D946B830C946D
:1003400081A00C9403D90C94788C0C948CB60D94E9
:10035000645D0C94A5450C947FA00D943B720C94A5
:10036000444C0C9409D90C94AEDF0C944ECB0D94F4
:100370008B2C0D94070D0D946F830C9486B60D9401
:10038000402C0D94D0110C947F550C9490E20D9458
:1003900039950D94642C0C948F550C94D6A10C9423
:1003A000794C0C94A8D80C9487550D9443720D94F5
:1003B0004F5D0C94C8E20D94A2830D947C2C0C9498
:1003C00083550C9450550C944C4C0D9480830C9494
:1003D0007CCB0D94DB4C0D944C2C0D94352E0D9450
:1003E0008A830C9408930D94342C0D94702C0C94E7
:1003F00083A00C94D0A10C948B550D9450290D948E
:10040000B9260C94D2450C946F8D0D941B950C94C9
:1004100060D80C94D2A10C94AE550C94048A0D941F
:10042000A2270D9453260C9482B50D94B5610C94BB
:10043000708A0C943C4C0D94485D0D94535D0C9463
:10044000B1960D943B0E0C94D4450D94B86F0C945A
:10045000B2E20D9438260D944B720C9443920D9495
:100460009F700C94D4A10C94194C0C9415B30D945A
:1004700000270C94E1940D9498760C94958C0C9430
:10048000FB450C943AE30D9486830C9430E30D9471
:1004900095760C9473550D94762C0C940D8D0C94CC
:1004A000E89B0C946F8A0D945E2C0D940B2E0D948A
:1004B00087260D941C750D94F12E0D942C270D9408
:1004C0003F720C94F1D80D94CA700C940ED90C9410
:1004D000E58C0D94AD6F0D946E260C9493CB0C941B
:1004E000144C0C9405B30C94AB4C0D9498830C9461
:1004F000A4B60D94292E0C94108B0C941BB30D9460
:1005000002260C9494B60C945EBA0C94A0E30D945D
:1005100086760D94E62B0C94F2B20C949CB60D9456
:1005200063290D94532E0D947C830D948F760C9437
:1005300009B30C941E4C0C940CE30D94BB0E0D945B
:10054000ED260D948C760C94974C0C94428C0C9464
:10055000ACB60D940A180C9430920C942C9D0D940A
:10056000EF610D94E7250C9484D00D94E22E0C9449
:100570007E8C0D941A2E0D9494830C94078A0C94FF
:100580008D4C0D94582C0D94E90E0D94462C0D9421
:1005900093270C9493E20C943CD90C94B6B90D9427
:1005A0003A2C0D9475830D9489760C94A2450D9484
:1005B000442E0C9401D60D94F6560C9405930D948C
:1005C000FA2E0C9462550C9493DB0C949C550D946C
:1005D0006A2C0C94EAE20C9443E30C94F7D80C9444
:1005E000324C0D9413270C9467E20C941DD90C9493
:1005F000564C0C940B930C949BE20D94FC2D0C9494
:1006000093550D94A9700D94D2260C94B7940C9424
:1006100081450D9478830C9480B60C9442D20C944E
:10062000ECCB0D94685D0C9413D90C9441B40C94EC
:1006300085A00D94A6830D9453720C947DA00C9408
:100640007B550C94429E0C94A14C0C946A4C0D94D6
:1006500080760C94604C0C94518C0C9469D80C945A
:10066000834C0C9430460C9448DC0D94B14C0C94A3
:10067000A7550D9458270C94FE450D94A0260C9474
:10068000F1DB0C94AD9A0C94CFB20C940E934E41C6
:100690004E494E495459494E46CDCCCC3D0AD723FC
:1006A0003C17B7D13877CC2B329595E6241FB14F44
:1006B0000A000020410000C84200401C4620BCBE89
:1006C0004CCA1B0E5AAEC59D7400407A10F35A00F6
:1006D000A0724E18090010A5D4E80000E87648176B
:1006E0000000E40B54020000CA9A3B000000E1F550
:1006F00005000080969800000040420F000000A016
:100700008601000000102700000000E80300000040
:10071000006400000000000A00000000000100006A
:100720000000002C76D888DC674F0823DFC1DFAEDD
:1007300059E1B1B796E5E3E453C63AE651997696A6
:10074000E8E6C28426EB898C9B62ED407C6FFCEF6F
:10075000BC9C9F40F2BAA56FA5F490055A2AF75C9D
:10076000936B6CF9676DC11BFCE0E40D47FEF5204F
:10077000E6B500D0ED902E03009435770500808417
:100780001E080000204E0A000000C80C333333332B
:100790000F986E12831141EF8D2114893BE6551697
:1007A000CFFEE6DB18D1844B381BF77C1D901DA4CF
:1007B000BBE424203284725E228100C9F124ECA1C2
:1007C000E53D274C4556454C494E4700434F4D4D5E
:1007D000554E49434154494F4E0044525952554E8B
:1007E000004552524F525300494E464F0045434830
:1007F0004F00536C6565702E2E2E005A2050726F7C
:1008000062652050617374204265640A005A20506A
:10081000726F626520506173742042656400203AF3
:1008200020686F6D655F7A5F736166656C790A0039
:10083000202064657374696E6174696F6E3D006831
:100840006F6D655F7A5F736166656C79005261698F
:100850007365205A20286265666F726520686F6D27
:10086000696E672920627920003E20686F6D696E8D
:1008700067206E6F74206E65656465642C20736BF1
:1008800069700A004732380070726F62655F726586
:100890007769706500473239205265747279696EE4
:1008A000670050726F62696E67204661696C6564AB
:1008B000004D31313720426564206C6576656C6986
:1008C0006E67206661696C65642E0A4730205A3174
:1008D000300A47302045300A4D3330302050323511
:1008E00020533838300A4D333030205035302053C3
:1008F000300A4D3330302050323520533838300AEA
:100900004D333030205035302053300A4D333030A5
:100910002050323520533838300A473420533100C4
:1009200070726F62655F6661696C6564004D31313C
:10093000372050726F6265207375636365737366E9
:10094000756C00205A3A200020593A200042656414
:1009500020583A20004D65736820706F696E7420CE
:100960006F7574206F662072616E67650A004D3086
:100970002053746F70004D312053746F7000436CBE
:1009800069636B20746F20526573756D652E2E2E12
:10099000004E6F204D6F76652E00456E64206669AF
:1009A0006C65206C6973740A00426567696E206625
:1009B000696C65206C6973740A004E6F206D656404
:1009C00069610A00526573756D696E672053440052
:1009D000286E6F2066696C65290043757272656EBA
:1009E000742066696C653A20005072696E742074D8
:1009F000696D653A20006F6B006F666600ED07E871
:100A000007E107DA07CC07C30744454255473A00D8
:100A10004D31313320530054617A20536964654B62
:100A200069636B20373437204F46462E002F2F0046
:100A30004D31343520533C696E6465783E206F75C6
:100A400074206F662072616E67652028302D312911
:100A50000A00416363656C65726174696F6E00467C
:100A6000656564726174650046523A0020466C6F99
:100A7000773A2000206F7574206F662072616E6770
:100A8000650A00536572766F20003A200020536596
:100A900072766F200020643A0020693A0020703A94
:100AA00000496E76616C696420657874727564655E
:100AB000720A0020643A0020693A0020703A00640B
:100AC000697300656E0043290A0061626C656420E9
:100AD000286D696E2074656D702000436F6C642012
:100AE00065787472756465732061726520004D3499
:100AF000323120696E636F72726563742070617247
:100B0000616D657465722075736167650A004D6576
:100B1000736820706F696E74206F7574206F662023
:100B200072616E67650A00454550524F4D204F4B2C
:100B30000A002E0A002028302D313029002076614D
:100B40006C7565206F7574206F662072616E6765C5
:100B500000416476616E6365204B3D002074656DD5
:100B60007065726174757265207072657761726EFE
:100B7000207472696767657265643A200020746545
:100B80006D706572617475726520707265776172DF
:100B90006E207472696767657265643A200020741C
:100BA000656D7065726174757265207072657761CC
:100BB000726E207472696767657265643A200020FE
:100BC00074656D7065726174757265207072657799
:100BD00061726E207472696767657265643A20009D
:100BE00020686F6D696E672073656E7369746976CE
:100BF0006974793A200020686F6D696E67207365AB
:100C00006E73697469766974793A20004F464600BC
:100C10004F4E00506F7765722D6C6F737320726545
:100C2000636F766572792000446F6E65207072691B
:100C30006E74696E672066696C650A004D3737000F
:100C40004D333100496E76616C6964206578747249
:100C5000756465720A00290A002E2E2E28005400A1
:100C6000554E4B4E4F574E20535441544500474329
:100C70004F44455F494E464F004C43445F504155F9
:100C800053455F524553554D450046494C414D45EE
:100C90004E545F52554E4F55545F434F4E54494E3C
:100CA00055450046494C414D454E545F52554E4FB7
:100CB0005554004D38373620526573706F6E646935
:100CC0006E672050524F4D50545F004572726F72E4
:100CD0002077726974696E6720746F2045455052A1
:100CE0004F4D210A0053544F505045442E20005080
:100CF00072696E7465722073746F707065642064BD
:100D0000756520746F206572726F72732E2046694C
:100D10007820746865206572726F7220616E64203D
:100D2000757365204D39393920746F20726573747D
:100D30006172742E202854656D70657261747572CD
:100D4000652069732072657365742E205365742065
:100D5000697420616674657220726573746172745F
:100D6000696E67290A004E6F20436865636B73756F
:100D70006D2077697468206C696E65206E756D6290
:100D800065722C204C617374204C696E653A2000AA
:100D90004E6F20436865636B73756D207769746867
:100DA000206C696E65206E756D6265722C204C61D9
:100DB0007374204C696E653A2000636865636B73D9
:100DC000756D206D69736D617463682C204C61735F
:100DD00074204C696E653A20004C696E65204E7532
:100DE0006D626572206973206E6F74204C6173743C
:100DF000204C696E65204E756D6265722B312C201A
:100E00004C617374204C696E653A20004D3131306D
:100E10000053442072656164206572726F720A002B
:100E2000486F74656E642049646C652054696D6513
:100E30006F757400486F74656E642049646C65203A
:100E400054696D656F75740A006D41290A0020644C
:100E50007269766572206F76657274656D70657201
:100E60006174757265207761726E696E67212028E2
:100E7000003A20002063757272656E7420646563A9
:100E800072656173656420746F20006D41290A00EA
:100E900020647269766572206F76657274656D7014
:100EA00065726174757265207761726E696E672113
:100EB0002028003A20002063757272656E742064E9
:100EC000656372656173656420746F20006D4129EC
:100ED0000A0020647269766572206F7665727465A7
:100EE0006D7065726174757265207761726E696E7E
:100EF00067212028003A20002063757272656E74A5
:100F00002064656372656173656420746F20006D91
:100F100041290A0020647269766572206F766572D5
:100F200074656D7065726174757265207761726E3B
:100F3000696E67212028003A20002121204B494C6E
:100F40004C20636175736564206279204B494C4C79
:100F500020627574746F6E2F70696E0A00212120F3
:100F60004B494C4C20636175736564206279207431
:100F70006F6F206D75636820696E61637469766553
:100F80002074696D65202D2063757272656E742002
:100F9000636F6D6D616E643A2000627573793A20FB
:100FA00070617573656420666F7220696E70757408
:100FB0000A00627573793A20706175736564206602
:100FC0006F7220757365720A00627573793A2070CA
:100FD000726F63657373696E670A004D656469615A
:100FE0002052656D6F766564004D656469612049C6
:100FF0006E736572746564004D3130303053004853
:101000006F74656E6420746F6F20636F6C640A0088
:1010100053656E64204D31303820746F20726573D3
:10102000756D650A00496E736572742066696C613E
:101030006D656E7420616E642073656E64204D3141
:1010400030380A0052656865617420446F6E65002F
:10105000526568656174696E672E2E2E0052656850
:10106000656174004865617465722054696D656FCF
:1010700075740053656E64204D31303820746F20D4
:1010800068656174206E6F7A7A6C650A004E6F7ABB
:101090007A6C65205061726B656400706175736570
:1010A0006400506175736500726573756D656400E9
:1010B000526573756D696E67002568753A25303223
:1010C00068750025303268753A253032687500251C
:1010D0006875642025303268753A253032687500AD
:1010E000447269766572206572726F7200636F690F
:1010F0006C2073686F727420636972637569740A17
:10110000006F76657274656D706572617475726575
:101110000A0020647269766572206572726F7220AF
:1011200064657465637465643A203078004C4F5789
:101130000048494748004F4B004572726F723A2091
:10114000416C6C200020636F6E6E656374696F6E16
:101150002E2E2E200054657374696E6720004C4F4C
:10116000570048494748004F4B004572726F723A2A
:1011700020416C6C200020636F6E6E656374696F34
:101180006E2E2E2E200054657374696E6720004CFD
:101190004F570048494748004F4B004572726F72E5
:1011A0003A20416C6C200020636F6E6E6563746939
:1011B0006F6E2E2E2E200054657374696E672000AA
:1011C0004C4F570048494748004F4B004572726FDB
:1011D000723A20416C6C200020636F6E6E65637400
:1011E000696F6E2E2E2E200054657374696E672011
:1011F00000544D4320434F4E4E454354494F4E20DB
:101200004552524F52004F46460A004661646520DF
:101210004865696768742000426564204C6576659E
:101220006C696E6720004661696C656420746F208C
:10123000656E61626C6520426564204C6576656C04
:10124000696E670A00496E76616C6964206D65732A
:10125000682E0A003E3E3E0020636F727265637422
:101260006564205A3A0047323920756E636F727296
:101270006563746564205A3A00203A203E207072FB
:101280006F62696E6720636F6D706C6574650A00CC
:10129000202063757272656E745F706F7369746914
:1012A0006F6E3D0050726F62696E6720506F696E9D
:1012B000740025532025692F2569002E0A002F0070
:1012C00050726F62696E67206D65736820706F6918
:1012D0006E742000202844525952554E290047323E
:1012E00039204175746F20426564204C6576656CC9
:1012F000696E67003F20284C2C522C462C42292036
:101300006F7574206F6620626F756E64732E0A00AD
:10131000204200204600205200473239204C003F36
:101320002856296572626F7365206C6576656C203E
:10133000696D706C61757369626C652028302D343D
:10134000292E0A00426164205A2076616C75650A74
:10135000004E6F2062696C696E6561722067726908
:10136000640A003E204175746F2D6C6576656C20B3
:101370006E6F74206E65656465642C20736B697094
:101380000A00473239004732380052756E6E696E76
:101390006720506F737420436F6D6D616E64730AC4
:1013A00000526573746F72652043757272656E7456
:1013B0000A005A204261636B6F66660A0046696ED6
:1013C000616C205A204D6F76650A00526564756322
:1013D000696E672043757272656E740A0053657496
:1013E00074696E67205A20506F756E63650A0050ED
:1013F00061726B696E672058590A0020284E6F741D
:1014000020796574206D65617375726564290020AB
:101410002041766572616765206D656173757265DF
:1014200064206261636B6C61736820286D6D293A7A
:10143000002020536D6F6F7468696E6720286D6D92
:10144000293A202020202020202020202020202079
:10145000202020530020204261636B6C6173682060
:1014600044697374616E636520286D6D293A20208C
:1014700020202020202000202846312E30203D2012
:1014800066756C6C2C2046302E30203D206E6F6EC1
:1014900065290A002020436F7272656374696F6E5C
:1014A00020416D6F756E742F466164652D6F757484
:1014B0003A202020202046006163746976653A0A4C
:1014C00000696E004261636B6C61736820436F72E8
:1014D00072656374696F6E20004465766961746932
:1014E0006F6E0025533A2025730046696E69736854
:1014F0006564210A003A207A3A2000206F662000B5
:10150000476F696E6720746F3A20580043570A008E
:10151000206469723A0020616E676C653A0053740A
:10152000617274207261646975733A004D343820B9
:10153000506F696E740025533A2025642F2564008E
:10154000506F736974696F6E696E67207468652087
:1015500070726F62652E2E2E0A003F4C65677320F5
:101560006F66206D6F76656D656E7420696D706C49
:1015700061757369626C652028302D3135292E0A1A
:10158000003F2028582C5929206F7574206F662041
:10159000626F756E64732E0A0050726F6265206F01
:1015A0007574206F6620626F756E6473003F5361BF
:1015B0006D706C652073697A65206E6F7420706C35
:1015C00061757369626C652028342D3530292E0AC7
:1015D000004D3438205A2D50726F6265205265706C
:1015E0006561746162696C69747920546573740A09
:1015F000003F2856296572626F7365206C657665B9
:101600006C20696D706C61757369626C652028303F
:101610002D34292E0A005374616E64617264204473
:101620006576696174696F6E3A20002052616E6759
:10163000653A2000204D61783A2000204D696E3ACD
:101640002000205369676D613A20004D65616E3A54
:101650002000205200416363656C65726174696F9C
:101660006E3A2050005741524E494E4721204C6F50
:1016700077205A204A65726B206D6179206C656114
:101680006420746F20756E77616E7465642070617C
:10169000757365732E0A00204D39322058002020C2
:1016A0004D61783A2000200020204D696E3A2000DC
:1016B000536F667420656E6473746F70733A2000A4
:1016C0005761726E696E673A20436C65616E2043A4
:1016D0006972636C652072657175697265732058F3
:1016E000590A005761726E696E673A2052616469E7
:1016F0007573204F7574206F662052616E67650A9E
:10170000004E6F7A7A6C6520746F6F20636F6C6423
:10171000202D20536B697070696E67207769706542
:101720000A0047322F473320626164207061726182
:101730006D65746572730A0050726F6265204F6642
:1017400066736574205A0050726F6265204F66663A
:10175000736574205A00290A0020746F20003F5AD4
:10176000206F7574206F662072616E676520280097
:10177000290A0020746F20003F59206F7574206F74
:10178000662072616E676520282D00290A0020748A
:101790006F20003F58206F7574206F662072616E55
:1017A000676520282D0050726F6265204F66667352
:1017B00065742058002050006F6B00526573656E91
:1017C000643A200043616E6E6F74206F70656E2006
:1017D00073756264697220002569730025696D2044
:1017E000256973002569682025696D2025697300C6
:1017F000256964202569682025696D2025697300A5
:1018000025697920256964202569682025696D206E
:10181000256973000A53746174733A2046696C61D8
:101820006D656E7420757365643A20002C204C6FD2
:101830006E67657374206A6F623A2000546F74613A
:101840006C2074696D653A200053746174733A209A
:10185000002C204661696C65643A20002C204669A2
:101860006E69736865643A20005072696E74733AE9
:10187000200053746174733A2000436F6F6C696E7B
:10188000672E2E2E0048656174696E672E2E2E001D
:10189000452025530020573A0042656420436F6F6E
:1018A0006C696E672E2E2E00426564204865617457
:1018B000696E672E2E2E0023646566696E6520446E
:1018C000454641554C545F00626564004B642000FE
:1018D0004B6920004B702000504944204175746FC3
:1018E00074756E652066696E697368656421205041
:1018F000757420746865206C617374204B702C20A3
:101900004B6920616E64204B6420636F6E73746159
:101910006E74732066726F6D2062656C6F772069DC
:101920006E746F20436F6E66696775726174696F5C
:101930006E2E680A00504944204175746F74756EAC
:1019400065206661696C6564212074696D656F75D9
:10195000740A00504944204175746F74756E652097
:101960006661696C6564212054656D70657261748F
:1019700075726520746F6F20686967680A00204B74
:10198000643A2000204B693A2000204B703A200036
:101990000A20436C617373696320504944200A0034
:1019A000204B643A2000204B693A2000204B703ACB
:1019B00020000A204E6F206F76657273686F6F7417
:1019C0000A002054753A2000204B753A2000206D03
:1019D00061783A2000206D696E3A200020643A2038
:1019E0000020626961733A200050494420417574B7
:1019F0006F74756E652073746172740A0050494487
:101A0000204175746F74756E65206661696C6564DC
:101A1000212054656D706572617475726520746FF4
:101A20006F20686967680A00504944204175746FE7
:101A300074756E6500504944204175746F74756EFD
:101A400065206661696C6564212042616420657867
:101A5000747275646572206E756D6265720A0045F8
:101A600072723A207574663820666F6E74206E6FDD
:101A70007420696E697469616C697A65642E0045C9
:101A800072723A207574663820666F6E74206E6FBD
:101A90007420696E697469616C697A65642E0045A9
:101AA00072723A207574663820666F6E74206E6F9D
:101AB0007420696E697469616C697A65642E006D61
:101AC00061726C696E66772E6F726700322E302EEF
:101AD000362E32001FFFFFFFFFFFFF6000000000F7
:101AE00001FF400000000000FF8000000000007FB8
:101AF00083CF00000C303F87FF80000C301F8679B9
:101B000080000C000F8C30C7838C30E78C30CFC73F
:101B1000CC31F38C30DCECEC33B98C30D86C6C33DA
:101B2000198C30D06C0C33198C30D86C0C33198C68
:101B300030DC6C0E3B198C30CF7C079F198C30C782
:101B40007C038F19400000000000026000000000CC
:101B500000061FFFFFFFFFFFF8000C0F00FE07024B
:101B60002503BB017FFE08FE08FE050808060000ED
:101B700040F0C88888987810050808060000C0F86A
:101B80008888888888F80505050600012030F83027
:101B9000200508080600002070F820202020E0051D
:101BA00009090600FF2070A8A8B8888870200705DA
:101BB00005070001D86C366CD80509090600FFF846
:101BC000A88888888888A8F8050A0A0600FE205098
:101BD00050505088A8A8887003030306000340A053
:101BE00040FFFFFFFFFFFFFFFFFFFFFFFFFFFFFFC4
:101BF000FFFFFFFFFFFFFF0000000605FF010707D3
:101C000006020080808080800080030303060105B7
:101C1000A0A0A005060606000050F85050F8500598
:101C200009090600FF2070A8A07028A870200507E9
:101C300007060000C8C8102040989805070706004E
:101C40000040A0A040A89068010303060205808020
:101C5000800309090601FF20404080808040402029
:101C60000309090601FF80404020202040408005F4
:101C7000070706000020A8702070A82005050506AB
:101C800000012020F820200203030601FFC040804D
:101C9000050101060003F8020202060100C0C005AA
:101CA00007070600000810102040408005070706BF
:101CB0000000708898A8C8887003070706010040D4
:101CC000C040404040E0050707060000708808104B
:101CD0002040F8050707060000F808103008887053
:101CE00005070706000010305090F8101005070790
:101CF000060000F880F00808887005070706000055
:101D0000304080F0888870050707060000F808104A
:101D1000102020200507070600007088887088883A
:101D200070050707060000708888780810600205B3
:101D300005060100C0C000C0C00206060601FFC0C3
:101D4000C000C040800305050601012040804020FE
:101D5000050303060002F800F803050506010180EB
:101D600040204080050707060000708810202000F2
:101D7000200507070600007088B8A8B8807005071E
:101D800007060000708888F888888805070706001D
:101D900000F04848704848F00507070600007088C2
:101DA0008080808870050707060000F04848484892
:101DB00048F0050707060000F88080F08080F805ED
:101DC0000707060000F88080F0808080050707067E
:101DD00000007088808098887005070706000088DA
:101DE0008888F8888888030707060100E04040409B
:101DF0004040E00507070600003810101010906002
:101E00000507070600008890A0C0A0908805070776
:101E1000060000808080808080F8050707060000AB
:101E200088D8A8888888880507070600008888C899
:101E3000A898888805070706000070888888888821
:101E400070050707060000F08888F080808005078D
:101E50000706000070888888A890680507070600B4
:101E600000F08888F0A090880507070600007088B9
:101E70008070088870050707060000F820202020E1
:101E80002020050707060000888888888888700554
:101E90000707060000888888885050200507070635
:101EA000000088888888A8A85005070706000088D1
:101EB0008850205088880507070600008888502031
:101EC000202020050707060000F80810204080F8B1
:101ED0000309090601FFE080808080808080E005A2
:101EE000070706000080404020101008030909067B
:101EF00001FFE020202020202020E0050303060031
:101F0000052050880501010600FEF80303030601C1
:101F100005804020050505060000700878887805D2
:101F200007070600008080F0888888F00505050610
:101F30000000708080887005070706000008087898
:101F4000888888780505050600007088F08070058F
:101F50000707060000304840E040404005070706FC
:101F600000FE7088888878087005070706000080E2
:101F700080F0888888880307070601004000C04079
:101F80004040E00409090601FE1000301010101056
:101F9000906005070706000080808890E090880325
:101FA0000707060100C04040404040E00505050627
:101FB0000000D0A8A8A8A8050505060000B0C8889C
:101FC0008888050505060000708888887005070761
:101FD0000600FEF0888888F080800507070600FE6E
:101FE00078888888780808050505060000B0C8804C
:101FF000808005050506000078807008F005070759
:102000000600002020F82020201805050506000005
:10201000888888986805050506000088888850200B
:102020000505050600008888A8A8500505050600D6
:102030000088502050880507070600FE88888850D1
:10204000204080050505060000F8102040F803092F
:10205000090601FF2040404080404040200109091E
:102060000602FF80808080808080808003090906CE
:1020700001FF8040404020404040800503030600AF
:102080000248A890FF00060900FE06020F03840123
:10209000FFFE07FE06FE05070700000040F0C888A7
:1020A000987810050707000000C0F888888888F82D
:1020B0000505050000012030F83020050707000065
:1020C000002070F8202020E00507070000002070A5
:1020D000A8B8887020060505000000B0D86CD8B0FC
:1020E0000508080000FFF8A888888888A8F805096E
:1020F000090000FE205050505088A8887003030348
:1021000000000340A040FFFFFFFFFFFFFFFFFFFFB6
:10211000FFFFFFFFFFFFFFFFFFFFFFFF00000006C5
:1021200005FF010606060200808080800080030310
:1021300003060103A0A0A00507070600FF5050F802
:1021400050F850500509090600FE2070A8A070281C
:10215000A870200608080600FF40A8481020485430
:10216000080507070600FF609090609890680103DB
:10217000030602038080800207070602FF4080807A
:10218000808080400207070602FF804040404040B8
:10219000800505050600008850F8508805050506ED
:1021A00000002020F820200204040602FEC0404067
:1021B00080050101060002F8020202060200C0C00A
:1021C0000406060601001010204080800406060662
:1021D000010060909090906003060606010040C0E8
:1021E000404040E00406060601006090102040F0E8
:1021F000040606060100F020601010E00506060641
:10220000000010305090F810040606060100F0801F
:10221000E01010E00406060601006080E090906087
:10222000040606060100F0101020404004060606D1
:1022300001006090609090600406060601006090C6
:1022400090701060020505060200C0C000C0C00208
:1022500007070602FEC0C000C04040800505050615
:1022600000001860806018050303060001F800F8FC
:10227000050505060000C0300830C0040707060148
:102280000060901060400040050606060000709057
:10229000A8B08070050606060000205088F88888DF
:1022A000050606060000F088F08888F00406060699
:1022B0000100609080809060040606060100E090B6
:1022C000909090E0040606060100F080E08080F027
:1022D000040606060100F080E08080800406060601
:1022E0000100609080B090600406060601009090A6
:1022F000F0909090030606060100E040404040E068
:102300000506060600003810101090600406060648
:10231000010090A0C0A090900406060601008080F5
:10232000808080F005060606000088D8A8A8888866
:1023300004060606010090D0B090909005060606AF
:102340000000708888888870040606060100E09006
:1023500090E080800407070601FF609090D0B06095
:1023600010040606060100E09090E0909004060636
:10237000060100609040209060050606060000F807
:1023800020202020200406060601009090909090C6
:1023900060040606060100909090F0606005060655
:1023A0000600008888A8A8D88805060606000088C8
:1023B00050202050880506060600008888502020FE
:1023C00020040606060100F010204080F0030606F7
:1023D000060100E080808080E0040606060100809F
:1023E0008040201010030606060100E02020202077
:1023F000E00503030600032050880501010600FEE6
:10240000F80202020602048040040404060100707F
:102410009090700406060601008080E09090E00431
:102420000404060100708080700406060601001096
:10243000107090907004040406010060B0C0700435
:102440000606060100205040E04040040606060152
:10245000FE6090907010600406060601008080E027
:102460009090900306060601004000C04040E00343
:1024700008080601FE200060202020A04004060677
:102480000601008080A0C0A090030606060100C0DF
:1024900040404040E0050404060000D0A8A888049D
:1024A0000404060100E0909090040404060100601A
:1024B0009090600406060601FEE09090E0808004A3
:1024C00006060601FE7090907010100404040601C8
:1024D00000A0D0808004040406010070C030E00435
:1024E00006060601004040E04050200404040601B6
:1024F00000909090700404040601009090606005C4
:10250000040406000088A8A85004040406010090F2
:102510006060900406060601FE9090907090600442
:102520000404060100F02040F00307070601002024
:102530004040804040200107070602FF80808080E5
:1025400080808003070706010080404020404080D3
:1025500004020206010350A0FFFFFFFFFFFFFFFF81
:10256000FFFFFFFFFFFFFFFFFFFFFFFFFFFFFFFF7B
:10257000FFFFFFFFFFFFFFFFFF0000000605FF0159
:1025800006060602008000808080800406060601A0
:10259000FF2070A0A070200507070600FF3048400C
:1025A000F04040F8050505060000A8508850A80531
:1025B00006060600008850F820F8200107070602EA
:1025C000FF808080008080800407070601FF708004
:1025D00060906010E0030101060105A006070706F0
:1025E0000000788494A494847803050506010160B2
:1025F000A06000E00505050600002850A050280452
:102600000303060100F01010040101060102F006A8
:1026100007070600007884B4A4A4847804010106A6
:102620000105F00403030601026090600507070638
:1026300000FF2020F8202000F803050506010140D6
:10264000A02040E0030505060101C0204020C00293
:10265000020206020440800405050601FF9090B0C6
:10266000D08005060606000078E8E8682828010101
:1026700001060202800202020602FE4080030505F6
:1026800006010140C04040E003050506010140A0ED
:102690004000E0050505060000A0502850A00508F0
:1026A000080600FF40C0405070307810050808064A
:1026B00000FF40C04050680810380508080600FFB9
:1026C000C0204030F03078100407070601002000D9
:1026D00020608090600507070600004020205070B1
:1026E000888805070706000010202050708888059C
:1026F000070706000020502050708888050707064D
:1027000000002850205070888805070706000050F8
:1027100000205070888805070706000020502050D0
:1027200070888805060606000078A0F0A0A0B8040E
:1027300008080601FE609080809060204004070732
:102740000601004020F080E080F004070706010049
:102750002040F080E080F00407070601002050F0E0
:1027600080E080F00407070601005000F080E08060
:10277000F00307070601008040E0404040E0030707
:10278000070601002040E0404040E0030707060143
:102790000040A0E0404040E0030707060100A00021
:1027A000E0404040E00506060600007048E8484862
:1027B0007004070706010050A090D0B09090040765
:1027C0000706010040206090909060040707060112
:1027D00000204060909090600407070601002050A0
:1027E000609090906004070706010050A0609090F0
:1027F000906004070706010050006090909060050B
:10280000050506000088502050880408080601FFCE
:102810001070B0B0D0D0E08004070706010040205F
:1028200090909090600407070601002040909090DF
:10283000906004070706010020509090909060047B
:10284000070706010050009090909060050707066A
:102850000000102088502020200406060601008079
:10286000E09090E0800406060601006090A0A09031
:10287000A004070706010040200070909070040734
:1028800007060100204000709090700407070601C1
:10289000002050007090907004070706010050A0BF
:1028A0000070909070040606060100500070909031
:1028B00070040707060100205020709090700504F6
:1028C0000406000070A8B0780406060601FE7080B9
:1028D0008070204004070706010040200060B0C05F
:1028E0007004070706010020400060B0C0700407B4
:1028F0000706010020500060B0C070040606060103
:1029000000500060B0C0700307070601008040005F
:10291000C04040E0030707060100204000C04040DF
:10292000E003070706010040A000C04040E00306A6
:1029300006060100A000C04040E0040707060100B1
:102940003060107090906004070706010050A000EE
:10295000E0909090040707060100402000609090EE
:1029600060040707060100204000609090600407A3
:1029700007060100205000609090600407070601E0
:102980000050A00060909060040606060100500010
:10299000609090600505050600002000F800200406
:1029A000040406010070B0D0E004070706010040EF
:1029B00020009090907004070706010020400090CE
:1029C00090907004070706010020500090909070CE
:1029D0000406060601005000909090700409090654
:1029E00001FE20400090909070906004080806015D
:1029F000FE8080E09090E080800408080601FE5090
:102A000000909090709060554E4C4F414420464944
:102A10004C414D454E54004C4F41442046494C4199
:102A20004D454E540046494C414D454E5420434877
:102A3000414E474500426564004E6F7A7A6C6500EE
:102A400046616E20537065656400436F6E6669670A
:102A500075726174696F6E004C6F616420536574A8
:102A600074696E677300526573746F726520446594
:102A70006661756C74730053746F7265205365746E
:102A800074696E67730050726568656174202420F4
:102A9000436F6E66004F6666004F6E00506F77653D
:102AA00072204F757461676500526574726163745A
:102AB00000424C546F75636800436F6E74726F6CA4
:102AC0006C65722046616E0050726F6265205A20FC
:102AD0004F666673657400416476616E6365642059
:102AE00053657474696E6773004D61696E004D398A
:102AF00032453432300A4D323036583059300A4D72
:102B00003330315032362E323949322E3537443750
:102B1000322E35390A4D393036453936300A4D3581
:102B200030300A4D31313720546F6F6C204368616B
:102B30006E676564004D3932453432300A4D3230AB
:102B400036583059300A4D3330315032362E393004
:102B500049322E34314437352E31390A4D39303629
:102B6000453936300A4D3530300A4D313137205431
:102B70006F6F6C204368616E676564004D39324544
:102B80003431350A4D323036582D35592D31320A0F
:102B90004D333031503134382E30374932362E35BE
:102BA00038443230362E32310A4D393036453936D6
:102BB000300A4D3530300A4D31313720546F6F6C4B
:102BC000204368616E676564004D393245343230A8
:102BD0000A4D323036583059300A4D333031503288
:102BE000312E3049312E37384436312E39330A4DA3
:102BF000393036453936300A4D3530300A4D3131AD
:102C00003720546F6F6C204368616E676564004DB8
:102C10003932453432300A4D323036583059300A64
:102C20004D3330315032312E3049312E3738443621
:102C3000312E39330A4D393036453936300A4D3563
:102C400030300A4D31313720546F6F6C204368614A
:102C50006E676564004D3932453432300A4D32308A
:102C600036583059300A4D3330315032312E3049D8
:102C7000312E37384436312E39330A4D3930364506
:102C80003936300A4D3530300A4D31313720546FE6
:102C90006F6C204368616E676564004D393245345E
:102CA00032300A4D323036583059300A4D333031D7
:102CB0005032312E3049312E37384436312E3933A7
:102CC0000A4D393036453936300A4D3530300A4DE7
:102CD00031313720546F6F6C204368616E676564D3
:102CE000004D3932453432300A4D32303658305981
:102CF000300A4D3330315032312E3049312E373891
:102D00004436312E39330A4D393036453936300A9A
:102D10004D3530300A4D31313720546F6F6C2043C0
:102D200068616E6765640048537C302E38306D6D85
:102D30007C48524420535445454C0048457C302E35
:102D400035306D6D7C48524420535445454C0053FA
:102D5000457C302E35306D6D7C4E4B4C2D504C20CB
:102D6000435500534C7C302E32356D6D7C4E4B4CB0
:102D70002D504C204355004D3137357C302E3530A9
:102D80006D6D7C43524220435500534B3238357CA5
:102D9000302E35306D6D7C42524153530048532BD9
:102DA0007C312E32306D6D7C485244205354454561
:102DB0004C00534B3137357C302E35306D6D7C42B5
:102DC00052415353004D61696E004D3730322054EB
:102DD0002564004D36303020423020542564004DAB
:102DE000373032203B2564004D3730312054256484
:102DF000004D373032004D373031004D3630302005
:102E00004230004D61696E00436F6E74696E756586
:102E1000005075726765206D6F726500524553559D
:102E20004D45204F5054494F4E533A005052494E51
:102E300054205041555345440020204E6F7A7A6CFF
:102E4000653A2000416D6178204500416D61782030
:102E50005A00416D6178205900416D617820580019
:102E6000412D54726176656C00412D52657472611A
:102E7000637400416363656C0056652D4A65726B2F
:102E800000565A2D4A65726B0056592D4A65726B71
:102E90000056582D4A65726B0050726F6265205A59
:102EA000204F66667365740050726F62652059200A
:102EB0004F66667365740050726F62652058204FCC
:102EC000666673657400452073746570732F6D6D4D
:102ED000005A2053746570732F6D6D005920537420
:102EE0006570732F6D6D00582053746570732F6D6E
:102EF0006D00416476616E63656420536574746926
:102F00006E6773003F0043616E63656C00496E69D4
:102F100074004D34323800496E697469616C697AA5
:102F20006520454550524F4D0046696C616D656E98
:102F3000740054656D706572617475726500544DEE
:102F4000432044726976657273004261636B6C6101
:102F500073680053746570732F6D6D0050726F62EB
:102F600065204F666673657473004A65726B004135
:102F70006363656C65726174696F6E0056656C6F32
:102F8000636974790053657420486F6D65204F66DE
:102F9000667365747300436F6E66696775726174FA
:102FA000696F6E00454550524F4D206461746173E6
:102FB000697A65206572726F722E0A00290A0020F4
:102FC00062797465733B2063726320002073746FB1
:102FD0007265642073657474696E677320726574BA
:102FE000726965766564202800202863616C6375CA
:102FF0006C6174656429210A0020213D200045454B
:1030000050524F4D20435243206D69736D6174637C
:1030100068202D202873746F726564292000205366
:10302000697A653A2000496E6465783A200044491F
:103030004749504F5453204C6F616465640A004403
:10304000494749504F5453204C6F6164696E670A79
:1030500000204D61726C696E3D563832290A004578
:103060004550524F4D2076657273696F6E206D69C1
:10307000736D617463682028454550524F4D3D0083
:10308000454550524F4D20496E697469616C697AAB
:1030900065640A0048617264636F64656420446516
:1030A0006661756C742053657474696E6773204C27
:1030B0006F616465640A0000009643000096430057
:1030C000009643000020420000C8420000C84200B1
:1030D0000048430000D24328230000282300006456
:1030E000000000282300003B20003A0A0020204D69
:1030F0003930360020204D3931340020204D35360E
:10310000392053310020204D363033200020530029
:1031100020204D3432352046004261636B6C617370
:103120006820636F6D70656E736174696F6E3A00CD
:103130002055004C0046696C616D656E74206C6FA3
:1031400061642F756E6C6F6164206C656E67746866
:10315000733A0020204D393030204B004C696E65A9
:10316000617220416476616E63653A005430204597
:1031700000447269766572207374657070696E6759
:10318000206D6F64653A005374616C6C47756172B1
:1031900064207468726573686F6C643A0020543000
:1031A000204500537465707065722064726976659D
:1031B000722063757272656E743A0020204D383546
:1031C000312058005A2D50726F6265204F66667329
:1031D00065740020204D3230392053004175746FE2
:1031E0002D526574726163743A20533D3020746FC0
:1031F0002064697361626C652C203120746F2069D2
:103200006E7465727072657420452D6F6E6C7920D6
:103210006D6F76657320617320726574726163747B
:103220002F7265636F76657200204600205700207C
:10323000204D3230382053005265636F7665723A04
:1032400020533C6C656E6774683E20463C756E6921
:1032500074732F6D3E0020460020570020204D3211
:103260003037205300526574726163743A20533CC6
:103270006C656E6774683E20463C756E6974732F8A
:103280006D3E205A3C6C6966743E0020204D3431FE
:1032900033205300506F7765722D4C6F737320523B
:1032A00065636F766572793A0020440020490020FA
:1032B000204D33303420500020440020490020208D
:1032C0004D33303120500050494420736574746987
:1032D0006E67733A002046002042002048002020FC
:1032E0004D3134352053004D6174657269616C2035
:1032F00068656174757020706172616D6574657266
:10330000733A00204A0020204732392057204900D4
:1033100020204D3432302053004175746F204265B7
:1033200064204C6576656C696E673A0020204D32EA
:103330003036205800486F6D65206F66667365747F
:103340003A0020580020530020204D3230352042D2
:1033500000416476616E6365643A20423C6D696E3B
:103360005F7365676D656E745F74696D655F7573B6
:103370003E20533C6D696E5F66656564726174657D
:103380003E20543C6D696E5F74726176656C5F6659
:10339000656564726174653E20583C6D61785F7844
:1033A0005F6A65726B3E20593C6D61785F795F6A38
:1033B00065726B3E205A3C6D61785F7A5F6A657218
:1033C0006B3E20453C6D61785F655F6A65726B3E60
:1033D0000020540020520020204D32303420500074
:1033E000416363656C65726174696F6E2028756EE8
:1033F0006974732F7332293A20503C7072696E746D
:103400005F616363656C3E20523C726574726163F8
:10341000745F616363656C3E20543C7472617665D1
:103420006C5F616363656C3E0020204D323031205B
:1034300058004D6178696D756D20416363656C65F9
:10344000726174696F6E2028756E6974732F7332A0
:10345000293A00204500205A0020590020204D32F2
:1034600030332058004D6178696D756D2066656553
:103470006472617465732028756E6974732F732983
:103480003A0053746570732070657220756E6974AC
:103490003A0020440020204D323030205300204498
:1034A000697361626C65640A0046696C616D656E82
:1034B000742073657474696E67733A0020204D310F
:1034C00034392043203B20556E69747320696E2087
:1034D00043656C736975730A0020286D6D2900209F
:1034E00020473231202020203B20556E6974732004
:1034F000696E206D6D00436F6F6C646F776E005066
:1035000072656865617420240046616E20537065A1
:10351000656400426564004E6F7A7A6C65004D61A7
:10352000696E004531005A00590058005900580092
:103530004531005A0059004F6666004F6E00580032
:10354000544D43204472697665727300537465610B
:103550006C746843686F7020456E61626C656400CE
:103560005374657070696E67204D6F6465005365B4
:103570006E736F726C65737320486F6D696E670050
:103580004472697665722043757272656E7400418B
:103590006476616E6365642053657474696E6773E5
:1035A0000050726F6265205A204F66667365740022
:1035B000416476616E6365204B00466C6F77004610
:1035C000616E20537065656400426564004E6F7AD9
:1035D0007A6C65005370656564004D61696E006FBB
:1035E00070656E00545249474745524544003A20A1
:1035F000007A5F6D696E00795F6D696E00785F6D4E
:10360000696E005265706F7274696E6720656E64D2
:1036100073746F70207374617475730A00203A209C
:1036200073796E635F706C616E5F706F73697469DC
:103630006F6E0A00202063757272656E745F706F22
:10364000736974696F6E3D003E2000646F5F626C49
:103650006F636B696E675F6D6F76655F746F002077
:10366000746F6F206C6F6E67206578747275736904
:103670006F6E2070726576656E7465640A002063F3
:103680006F6C6420657874727573696F6E207072E8
:103690006576656E7465640A00486F6D65202573F4
:1036A0002573257320466972737400486F6D696EC7
:1036B00067204661696C656400290A005D005B0053
:1036C0002C20002C20002E2E2E2800646F5F686FA7
:1036D0006D696E675F6D6F7665005761726E696EBA
:1036E000673A20486F6D696E672042756D7020449F
:1036F000697669736F72203C20310A000202042946
:103700000A003C3C3C207365745F617869735F69B3
:10371000735F61745F686F6D652800203A200A004E
:10372000202063757272656E745F706F736974695F
:103730006F6E3D005D203D20003E20686F6D655F2F
:103740006F66667365745B002A2A2A205A20484FE8
:103750004D454420574954482050524F4245202857
:103760005A5F4D494E5F50524F42455F5553455346
:103770005F5A5F4D494E5F454E4453544F505F5022
:10378000494E29202A2A2A0A3E2070726F62652E2D
:103790006F66667365742E7A203D2000000000C0BD
:1037A000000090C100000000290A003E3E3E207348
:1037B00065745F617869735F69735F61745F686F77
:1037C0006D652800290A003C3C3C20686F6D6561EE
:1037D0007869732800203A203E2041465445522003
:1037E0007365745F617869735F69735F61745F6843
:1037F0006F6D650A00202063757272656E745F706C
:103800006F736974696F6E3D006D6D0A0052652DAE
:1038100062756D703A20006D6D0A004D6F766520FF
:10382000417761793A20000000A0400000A04000EC
:103830000000406D6D0A00486F6D6520466173742D
:103840003A200000006A4300008143008067436D16
:103850006D0A0053656E736F726C657373206261DD
:10386000636B6F66663A2000FFFFFF290A003E3E49
:103870003E20686F6D656178697328004C6F6164E4
:10388000206D6D00556E6C6F6164206D6D00466932
:103890006C2E204469612E004520696E206D6D5E9E
:1038A0003300416476616E6365204B004D333033E5
:1038B0002055312045256920532569005049442071
:1038C0004175746F74756E65202A005049442D440B
:1038D000202A005049442D49202A005049442D50A7
:1038E000202A0020082046616374002008204D61D2
:1038F00078002008204D696E004F6666004F6E000C
:103900004175746F74656D70005654726176204D08
:10391000696E00566D696E00566D617820450056DF
:103920006D6178205A00566D6178205900566D619E
:10393000782058003F005374617274205072696E91
:10394000740043616E63656C005072696E7400436D
:10395000616E6E6F7420656E74657220737562643B
:1039600069723A2000022E2E004D61696E0021001E
:10397000486F74656E6420746F6F20636F6C6400B1
:103980004261636B0050726F63656564004D6F74D4
:10399000696F6E0044697361626C65205374657071
:1039A00070657273004D3834004D34382050726F9A
:1039B0006265205465737400473238204F0A4D34D5
:1039C0003820503130004661646520486569676879
:1039D00074004F6666004F6E00426564204C657649
:1039E000656C696E67004C6576656C2042656400A5
:1039F0004732380A473239004175746F205A2D41D9
:103A00006C69676E0047333400486F6D65205A005B
:103A10004732385A00486F6D65205900473238598F
:103A200000486F6D65205800473238580041757462
:103A30006F20486F6D6500473238004D61696E0038
:103A4000507265686561742024204265640050727C
:103A50006568656174202420456E640054656D704E
:103A600065726174757265002E0A0044656C657438
:103A7000696F6E206661696C65642C2046696C65AF
:103A80003A200046696C652064656C657465643A2B
:103A9000005344207072696E74696E672062797495
:103AA0006520004E6F74205344207072696E7469F3
:103AB0006E670A002F6175746F25632E6700577259
:103AC0006974696E6720746F2066696C653A2000BE
:103AD000667265736800646F696E67002066696C62
:103AE000653A20004E6F772000000020002300265A
:103AF0000029002C002F0032000001000003010605
:103B000001090120453A00205A3A0020593A00584C
:103B10003A0020746F6F206C6F6E67206578747246
:103B20007573696F6E2070726576656E7465640A70
:103B30000020636F6C6420657874727573696F6EB2
:103B40002070726576656E7465640A00506C6561FC
:103B50007365205265736574005052494E54455246
:103B60002048414C5445440025533A2025530070C9
:103B70006F7765726F6666004B494C4C45442E204A
:103B8000005072696E7465722068616C7465642E91
:103B9000206B696C6C28292063616C6C6564210A58
:103BA0000053544F505045442E20005072696E749B
:103BB00065722073746F707065642064756520741D
:103BC0006F206572726F72732E2046697820746858
:103BD00065206572726F7220616E64207573652056
:103BE0004D39393920746F20726573746172742E87
:103BF000202854656D7065726174757265206973F3
:103C00002072657365742E20536574206974206179
:103C1000667465722072657374617274696E672967
:103C20000A006563686F3A004572726F723A006607
:103C3000616C736500747275650020286469736136
:103C4000626C6564290A0020280041424C204164CE
:103C50006A7573746D656E74205A005A20466164EB
:103C6000653A20002028656E61626C6564290A004F
:103C700041626F76650053616D65205A2061730063
:103C800042656C6F77004175746F20426564204C0B
:103C90006576656C696E673A2042494C494E4541EC
:103CA0005200204E6F7A7A6C65290A002026200087
:103CB0002D43656E746572002D46726F6E74002D13
:103CC0004261636B002028416C69676E6564205710
:103CD0006974680020284D6964646C650020284C74
:103CE00065667400202852696768740050726F62BC
:103CF00065204F666673657420580050726F626568
:103D00003A20424C544F5543480A004D616368695C
:103D10006E6520547970653A2043617274657369E9
:103D2000616E0A005D0A004578747261706F6C61A3
:103D30007465205B0042696C696E656172204C6538
:103D400076656C696E6720477269643A0A00203AAA
:103D5000202E2E2E4E6F77204F4E0A0020206375A6
:103D60007272656E745F706F736974696F6E3D0017
:103D7000203A204C6576656C696E67204F46460A8E
:103D800000202063757272656E745F706F73697462
:103D9000696F6E3D00203A202E2E2E4E6F77204FF9
:103DA00046460A00202063757272656E745F706FFC
:103DB000736974696F6E3D00203A204C6576656CBE
:103DC000696E67204F4E0A00202063757272656E1F
:103DD000745F706F736974696F6E3D0072657365AF
:103DE000745F6265645F6C6576656C0A00424C5472
:103DF0006F75636820436F6D6D616E64203A004299
:103E00004C546F75636820536574204D6F64652052
:103E10002D2000636F6E666967206D6F6465202DCD
:103E2000204F440A006C6173745F77726974746523
:103E30006E5F6D6F6465202D200021212053544F4B
:103E4000502063616C6C65642062656361757365A5
:103E5000206F6620424C546F756368206572726FE4
:103E600072202D2072657374617274207769746892
:103E7000204D3939390A00424C546F75636820521D
:103E800065636F76657279204661696C65640A00C6
:103E9000626C746F7563682E6465706C6F795F70A7
:103EA000726F63282920656E640A00424C546F7556
:103EB000636820414C41524D206F72205452494753
:103EC000474552206166746572204445504C4F59F5
:103ED0002C207265636F766572696E670A00424CCA
:103EE000546F756368204445504C4F59207265717A
:103EF0007565737465640A00626C746F7563682E0F
:103F000073746F775F70726F63282920656E640A1F
:103F10000021212053544F502063616C6C65642054
:103F200062656361757365206F6620424C546F75DE
:103F30006368206572726F72202D207265737461E0
:103F400072742077697468204D3939390A00424CFF
:103F5000546F756368205265636F76657279204689
:103F600061696C65640A00424C546F756368204156
:103F70004C41524D206F72205452494747455220C0
:103F800061667465722053544F572C207265636FBD
:103F9000766572696E670A00424C546F75636820DB
:103FA00053544F57207265717565737465640A00C8
:103FB0005072696E74696E67204F626A656374003F
:103FC0002553202569002F2F616374696F6E3A00B5
:103FD000656E6400107CFEFEFE44402480000031CB
:103FE0008000002480444004000E000E007FC0FFCB
:103FF000E0FFE0FFE0FFE01FC07FF0DDD8FFF87FCB
:10400000F006000F001F8036C03FC009001680294F
:104010004006000F001F8036C03FC01680204010B1
:1040200080104008801FC037607FF05FD050500D77
:1040300080104048905FD077707FF01FC010402004
:10404000200F007FE0FFF0E670FFF0198036C0C05F
:10405000300F007FE0FFF0E670FFF0198036C019E6
:104060008000FE0003FF8007C7C00701E00000E0FA
:104070000000F00000700400700E00701F00703F20
:1040800080F00E00E00F01E007C7C003FF8000FED4
:104090000000FE0003FF8007C7C00F01E00E00E034
:1040A0003F80F01F00700E00700400700000700070
:1040B00000F00000E00701E007C7C003FF8000FE3A
:1040C000000E000E000E000E000E000E000E000E80
:1040D000007FC03F801F000E00040004000E001F80
:1040E000003F807FC00E000E000E000E000E000E7E
:1040F000000E000E00FFFFFF7F80FFC0FFC0FFC06B
:104100007F807F80FFC0FFC0FFC03F001E000C000B
:1041100050726F6265205A204F6666736574002086
:10412000706F736974696F6E5F7368696674203D40
:10413000200020686F6D655F6F6666736574203D53
:104140002000417869732000206C696D6974656492
:1041500020746F2000204D61782000290A005072E1
:104160006F62653A3A646F5F7A5F7261697365285E
:10417000006465706C6F793A2000203A2050726FAD
:1041800062653A3A7365745F6465706C6F796564F3
:104190000A00202063757272656E745F706F7369B8
:1041A00074696F6E3D00206D61783A00206D696E14
:1041B0003A004178697320000000684300007043B2
:1041C00000806743000000C0000090C100000000B4
:1041D00053657474696E67732053746F72656400FD
:1041E000290A002062797465733B206372632000A2
:1041F00053657474696E67732053746F72656420BD
:104200002800536D6F6F7468696E67005A0059001B
:104210005800436F7272656374696F6E004D616917
:104220006E003F0043616E63656C204F626A656398
:1042300074004E4F005945530043616E63656C2016
:104240004F626A656374203D004D61696E0053746E
:104250006F77004465706C6F790053572D4D6F6414
:10426000650053656C662D54657374005265736503
:10427000740049646C6520506572696F6400416325
:1042800074697665205370656564004175746F20AC
:104290004D6F64650049646C65205370656564000A
:1042A000556E72657472616374205600556E726546
:1042B00074722E206D6D00486F70206D6D00526518
:1042C0007472616374205600526574726163742065
:1042D0006D6D004175746F2D526574726163740069
:1042E000202D20496E76616C696420657874727542
:1042F000646572206E756D62657220210A0010007F
:10430000AD0330016A0150022B0170030A019004D1
:10431000F500B005E500D006D800F007CE00100982
:10432000C500300ABE00500BB700700CB100900DF4
:10433000AB00B00EA600D00FA200F0109D0010122E
:104340009900301395005014920070158E0090164D
:104350008B00B0178700D0188400F0198100101B63
:104360007E00301C7B00501D7900701E7600901F6F
:104370007300B0207000D0216E00F0226B0010247A
:104380006900302566005026630070276100902880
:104390005E00B0295C00D02A5900F02B5600102D89
:1043A0005400302E5100502F4E0070304B00903191
:1043B0004800B0324500D0334200F0343E001036A1
:1043C0003B00303737005038330070392E00903AB8
:1043D0002900B03B2300D03C1B00F03D1100103FF2
:1043E0000100F03F00004572723A204D415854459B
:1043F0004D50004D415854454D50207472696767C7
:1044000065726564004572723A204D494E54454DBF
:1044100050004D494E54454D502074726967676590
:1044200072656400202F002042403A0020403A008C
:1044300020573A007C3C3E5E2B3D3F2F5B5D3B2C82
:104440002A225C00544845524D414C2052554E4161
:1044500057415900546865726D616C2052756E61E8
:104460007761790025290A00252000203B202800BB
:1044700020440020410020490020204D37313020C9
:1044800053003B20436F6E74726F6C6C65722046F4
:10449000616E0A004D32342053256C642054256C23
:1044A00064004739322E39204525730047312046B4
:1044B0002564004739322E39205A257300473120B0
:1044C0005A30204632303000473120582573205969
:1044D000257320463330303000473132004D3432BE
:1044E0003020532569205A2573004D313036205035
:1044F000256920532569004D313039205325690045
:104500004D31393020532569004D3230302044255B
:10451000730047323852305859004739322E39200B
:104520004530205A300A47315A2573004D34323015
:10453000205330205A300073707265616443796390
:104540006C6500737465616C746843686F700020FB
:10455000647269766572206D6F64653A09007370E4
:10456000726561644379636C6500737465616C7432
:104570006843686F700020647269766572206D6FA1
:1045800064653A09007370726561644379636C65B0
:1045900000737465616C746843686F7000206472A6
:1045A00069766572206D6F64653A09007370726593
:1045B00061644379636C6500737465616C7468430E
:1045C000686F700020647269766572206D6F646533
:1045D0003A090020647269766572206375727265AB
:1045E0006E743A2000206472697665722063757279
:1045F00072656E743A200020647269766572206379
:10460000757272656E743A20002064726976657204
:104610002063757272656E743A200020707265773F
:1046200061726E20666C616720636C65617265649F
:104630000A00207072657761726E20666C61672077
:10464000636C65617265640A0020707265776172DF
:104650006E20666C616720636C65617265640A0038
:10466000207072657761726E20666C616720636C82
:1046700065617265640A0020496E76616C69642028
:104680006578747275646572200000000000000097
:10469000000000000000000000000000000000001A
:1046A000000000000000000000000000000C0000FE
:1046B00000000000000C00000000000000120000DC
:1046C00000000000002300000000000000210000A6
:1046D00000000000004C800000000000005E800030
:1046E00000000000009240000000000000A1400017
:1046F000000000000121200000000000027F900067
:1047000000000000020010000000000007FFF80099
:104710000000000004000800000000000800040081
:104720000000000008000600000000001000020069
:1047300000000000301E010000000000207F81000A
:104740000000000041FFE0800000000043FCF0801A
:1047500000000000873B7840000000018EDBFC6019
:10476000000000010FEBCC20000000021FEDB6108E
:10477000000000021FDEB6100000000439CD7F08E3
:104780000000000436E0FF08000000087EC0BB8483
:10479000000000187F005D86000000107FC0ED82E1
:1047A000000000203CC07301000000203B337F016B
:1047B000000000701BE77E03800000C81DEEDE04D1
:1047C000C00000880FDEDC04400001240FDF3C093C
:1047D0002000012607DBF8192000027203E7F0131E
:1047E0009000025101FFE02290000489007F8024A4
:1047F00048000904801E004824000BFE400000DF32
:10480000F40010004000008002001FFFFFFFFFFFC8
:10481000FE0000000000000000000000000000009A
:10482000000000000000000000001022103C3C0EC0
:104830001F0010221004221104001022100822115F
:104840000400102210083C11040010221010221144
:10485000040010221020221104001E1C1E3C3C0EDD
:104860000400000000000000000000000000000044
:104870000000000000000000000000000000000038
:104880000000000000000000000000000000000028
:104890000000000000000000000000000000000018
:1048A0000000000000000000000000000000000008
:1048B00000000000000000000000000000000000F8
:1048C00000000000000000001000C90210012C01CF
:1048D0004001220170011801B0010E01F001040134
:1048E0005002FA00B002F0003003E600D003DC0012
:1048F0009004D2007005C800A006BE000008B400F5
:10490000B009AA00D00BA000600E960060118C00C8
:104910000015820020197800C01D6E00A0226400DE
:10492000B0275A00902C500000314600E0343C0083
:1049300010383200903A2800603C1E00A03D140060
:10494000803E0A00203F00004732382058002020D7
:10495000506C616E6E6572427566666572427974FE
:1049600065733A20002046726565204D656D6F7253
:10497000793A2000436F6D70696C65643A2041702C
:104980007220313420323032310A00204C6173748D
:1049900020557064617465643A20323032302D30B5
:1049A000382D3039207C20417574686F723A204C64
:1049B000756C7A626F740A00322E302E362E320AEF
:1049C000004D61726C696E0020536F66747761727E
:1049D000652052657365740A0020576174636864CA
:1049E0006F672052657365740A002042726F776E9C
:1049F000206F75742052657365740A0020457874C1
:104A000065726E616C2052657365740A00506F7731
:104A1000657255700A0073746172740A0047323807
:104A20005859004D31303031006572726F72207705
:104A3000726974696E6720746F2066696C650A001C
:104A4000446F6E6520736176696E672066696C6578
:104A50002E0A004D323900456E6473746F70730016
:104A6000255320256320256320256320256300200E
:104A70005A3A0020593A0020583A00656E6473741F
:104A80006F7073206869743A200020436F756E74EC
:104A900020583A0042656400453100626564002C8C
:104AA0002073797374656D2073746F707065642101
:104AB000204865617465725F49443A200048656129
:104AC00074696E67204661696C656400486561744D
:104AD000696E67206661696C6564004D3131322012
:104AE00053687574646F776E0042656400456E6349
:104AF0006C6F73757265001FE0201020102010107D
:104B00002010202010201030300840048003001FA7
:104B1000E03FF03FF03FF01FE01FE03FF03FF03F8D
:104B2000F00FC0078003003FFFF83E18F8381F3829
:104B3000301F98341F182E1E082F1C082FB8083F4E
:104B4000FC083FFFF8207FF8203BE82071E820F0C8
:104B5000E831F05833F01839F0383E30F83FFFF8BC
:104B60003FFFF83E30F839F03831F01830F01820B7
:104B7000F0682031E82039E8207FF83FFFF83FFC5B
:104B8000082F38082E18082C1E08301E18301F1841
:104B9000381F383E18F83FFFF83FFFF83E00F8395D
:104BA00001383783D83783D82FC7E827C7C821FFF4
:104BB00008207C08207C08207C0821FF0827C7C823
:104BC0002FC7E83783D83783D83901383E00F83FFC
:104BD000FFF8FFFFC0400020200010100008080070
:104BE0000404000203FFFF02220004440004440006
:104BF000022200011100FFFFC04088A02111101205
:104C0000220808000404000203FFFF6E6F74696647
:104C100069636174696F6E20006E6F7469666963A1
:104C20006174696F6E200063616E63656C00507221
:104C3000696E742041626F72746564004469736DBB
:104C40006973730055492041626F72746564004D49
:104C5000323520500A4D323400526573756D65004F
:104C600055492050617573650050617573696E67B1
:104C70002E2E2E00726573756D65004D3234006FF7
:104C80006F6F00000047414D45204F56455200438D
:104C9000616E6E6F74206F70656E207375626469EB
:104CA000722000534420496E6974204661696C008B
:104CB00053442063617264206F6B0A006F70656EED
:104CC000526F6F74206661696C65640A00766F6C60
:104CD000756D652E696E6974206661696C65640A1C
:104CE000004E6F20534420636172640A000A4D3203
:104CF00034004D3233202573002E0A006F70656E2C
:104D0000206661696C65642C2046696C653A2000F8
:104D100046696C652073656C65637465640A002080
:104D200053697A653A200046696C65206F70656E3C
:104D300065643A2000454E4420535542524F555425
:104D4000494E450A002220706F7300222070617264
:104D5000656E743A2200535542524F5554494E45A0
:104D60002043414C4C207461726765743A220053B1
:104D7000756263616C6C204F766572666C6F77004C
:104D80004578636565646564206D6178205355429C
:104D9000524F5554494E452064657074683A00502E
:104DA00061726B696E672E2E2E0000005761697468
:104DB00020666F720066696C616D656E7420636851
:104DC000616E676500746F2073746172740057615F
:104DD000697420666F720066696C616D656E74201F
:104DE000756E6C6F616400004E6F7A7A6C65206836
:104DF000656174696E6700506C65617365207761E9
:104E000069742E2E2E0000507265737320627574C3
:104E1000746F6E00746F2068656174206E6F7A7AAB
:104E20006C650000496E736572742066696C616D13
:104E3000656E7400616E64207072657373206275B4
:104E400074746F6E00746F20636F6E74696E756535
:104E5000005761697420666F720066696C616D65E8
:104E60006E74206C6F616400005072657373204231
:104E70007574746F6E00746F20726573756D652044
:104E80007072696E7400005761697420666F7220D9
:104E90007072696E7400746F20726573756D652E23
:104EA0002E2E00005761697420666F720066696C6F
:104EB000616D656E742070757267650000536E34A5
:104EC0006B3300496E766164657273004272696388
:104ED0006B6F75740041626F7574205072696E74E7
:104EE0006572003E2000256C642E25696D004578B2
:104EF00074727564656420546F74616C003E2000A8
:104F00004C6F6E67657374204A6F622054696D65DB
:104F1000003E2000546F74616C205072696E7420E2
:104F200054696D6500436F6D706C65746564003A1B
:104F300020005072696E7420436F756E74003A20C1
:104F40000047616D6573005072696E74657220531D
:104F500074617473005072696E74657220496E6674
:104F60006F004D61696E004D313030300053746F09
:104F700070205072696E7400526573756D652050B3
:104F800072696E7400506F776572204F7574616737
:104F900065003F004261636B0053746F7000507294
:104FA000696E742066726F6D204D6564696100439F
:104FB00068616E6765204D65646961004D3231003E
:104FC00041626F7574205072696E74657200546F1F
:104FD0006F6C204865616473004368616E6765208B
:104FE00046696C616D656E7400436F6E66696775C6
:104FF000726174696F6E0054656D7065726174756D
:105000007265004D6F74696F6E00526573756D65E2
:10501000205072696E74004E6F204D6564696100A6
:1050200043616E63656C204F626A656374005475FA
:105030006E650053746F70205072696E7400506119
:10504000757365205072696E7400496E666F2053E7
:10505000637265656E005072696E742066726F6D62
:10506000204D6564696100204469736372657061F5
:105070006E63793A00326E642050726F6265205A16
:105080003A00534C4F57003173742050726F626571
:10509000205A3A00464153540050726F62653A3AC2
:1050A00072756E5F7A5F70726F62650050726F62C8
:1050B000696E67204661696C656400205A3A200079
:1050C00020593A200042656420583A2000506F73FE
:1050D0006974696F6E204E6F7420526561636861F8
:1050E000626C650A00203A200A0020206375727203
:1050F000656E745F706F736974696F6E3D005F7287
:10510000656C6174697665290A002C20002C2000EA
:105110002C20002C20002E2E2E280050726F62654D
:105120003A3A70726F62655F61745F706F696E7436
:105130000050726F62653A3A70726F62655F646FB9
:10514000776E5F746F5F7A0020547269676765726B
:105150006564206561726C792E00204E6F20747238
:1051600069676765722E002050726F626520666104
:10517000696C21202D0070726F6D70745F00736810
:105180006F7700627574746F6E00626567696E0098
:1051900050757267654D6F72650050617573656417
:1051A00000436F6E74696E7565004C6F61642046D4
:1051B000696C616D656E74205400496E736572741C
:1051C0002066696C616D656E7420616E6420736524
:1051D0006E64204D3130380A003C3C3C00220A000D
:1051E000556E6B6E6F776E20636F6D6D616E643A96
:1051F00020220054617A20536964654B69636B20F7
:105200003734372052656164792E005072696E74AC
:10521000696E672E2E2E005072696E742050617573
:105220007365640041425300504C4100000021006E
:10523000240027002A002D00300033000101000067
:10524000040107010A0100002200250028002B00AC
:105250002E003100340002010000050108010B019D
:1052600005050505070508080808020202020A0AE2
:105270000808040404040101010101010101030300
:10528000030303030303040707070C0C0C0C0C0CAB
:105290000C0C0202020206060606060606060B0BA8
:1052A0000B0B0B0B0B0B01021020200808102040E9
:1052B00010204080020102010804020101020408DA
:1052C0001020408080402010080402018004020168
:1052D00080402010080402010804020101020408B1
:1052E00010204080010204081020408000000A0BBA
:1052F00002090C0D0E080703040100000000000065
:10530000000000000000000000000000000000009D
:10531000000000000000000012111000000000005A
:10532000000000000000000000000000000000007D
:105330000000004D6F76652025736D6D004D6F7612
:105340006520302E316D6D004D6F766520316D6DAD
:10535000004D6F76652031306D6D004D6F766520A4
:1053600041786973004578747275646572004D6F99
:105370007665205A004D6F76652059004D6F766531
:10538000205800285224524368616E6765204669A0
:105390006C616D656E7400556E6C6F61642046695A
:1053A0006C616D656E74004C6F61642046696C6160
:1053B0006D656E7400507265686561742043757325
:1053C000746F6D00507265686561742024004261DD
:1053D000636B0024F4D43050C38E20C2A2401782E5
:1053E0008B7011127A910D816CD90AA861E108C7FE
:1053F000586607615143061E4B5D05C145A7041A57
:10540000411104093D9803713931034036DB0265CF
:10541000339102D4305402802E1D02632CEE0175AC
:105420002AC501B028A001102781018F2564012B16
:10543000244B01E0223401AC211F018D200D01809D
:105440001FFC00841EED00971DDF00B81CD200E693
:105450001BC600201BBC00641AB200B219A8000AC7
:1054600019A0006A189900D117910040178B00B558
:1054700016840031167E00B31579003A157300C703
:10548000146F0058146A00EE136600881363002539
:10549000135E00C7125B006C12570015125400C156
:1054A00011510070114F0021114B00D61049008D91
:1054B0001047004610440002104200C00F40008018
:1054C0000F3E00420F3C00060F3B00CB0E3800930E
:1054D0000E37005C0E3500270E3400F30D3200C18C
:1054E0000D3100900D3000600D2E00320D2D0005A5
:1054F0000D2C00D90C2B00AE0C2900850C29005C6A
:105500000C2700350C27000E0C2600E80B2400C4E5
:105510000B2400A00B23007D0B23005A0B21003924
:105520000B2100180B2000F80A1F00D90A1E00BB2F
:105530000A1E009D0A1D00800A1D00630A1C004708
:105540000A1B002C0A1B00110A1A00F7091A00DDB9
:10555000091900C4091900AB091900920917007B49
:10556000091800630917004C0916003609160020B7
:105570000916000A091500F5081500E0081400CC0A
:10558000081400B8081400A4081400900813007D43
:105590000812006B08130058081200460812003465
:1055A000081100230811001208110001081100F071
:1055B000071000E0071000D0071000C0071000B06F
:1055C000070F00A107100091070E0083070F00745A
:1055D000070F0065070E0057070E0049070E003B36
:1055E000070D002E070E0020070D0013070D000603
:1055F000070D00F9060C00ED060D00E0060C00D4C6
:10560000060C00C8060C00BC060C00B0060C00A47A
:10561000060B0099060C008D060B0082060B007726
:10562000060B006C060B0061060A0057060B004CC7
:10563000060A0042060A0038060A002E060A00245E
:10564000060A001A060A001006090007060A00FDED
:10565000050900F4050900EB050900E2050900D978
:10566000050900D0050900C7050900BE050900B5F8
:10567000050800AD050800A50509009C0508009473
:105680000508008C050800840508007C05080074E6
:105690000508006C050700650508005D0507005654
:1056A0000508004E050700470507004005080038BB
:1056B000050700310507002A050700230507001C20
:1056C000050600160507000F05070008050600027D
:1056D000050700FB040600F5040700EE040600E8D9
:1056E000040600E2040700DB040600D5040600CF30
:1056F000040600C9040600C3040600BD040600B782
:10570000040600B1040500AC040600A6040600A0CF
:105710000405009B04060095040500900406008A19
:1057200004050085040500800406007A0405007560
:10573000040500700405006B0405006604050061A3
:105740000405005C04050057040500520405004DE3
:1057500004050048040500430405003E0404003A23
:1057600004050035040500300404002C040500275E
:10577000040400230405001E0404001A0404001697
:10578000040500110404000D0404000904050004CC
:1057900004040000040400FC030400F8030400F403
:1057A000030400F0030400EC030400E8030400E435
:1057B000030400E0030400DC030400D8030400D465
:1057C000030400D0030400CC030400C8030300C595
:1057D00003030024F404D9201BC40C5C0E9804C4F9
:1057E000095F0265077101F405F900FB04B3004885
:1057F000048700C10369005803550003034500BE38
:10580000023A008402310053022A002902250004D2
:10581000022000E4011C00C8011900AF0117009824
:105820000114008401130071011000610110005186
:10583000010E0043010D0036010B002B010B00206F
:10584000010B00150109000C01090003010800FB10
:10585000000800F3000800EB000700E4000600DE8B
:10586000000600D8000600D2000600CC000500C7E4
:10587000000500C2000500BD000400B9000400B529
:10588000000400B1000400AD000400A9000400A55C
:10589000000300A20003009F0004009B0003009887
:1058A0000003009500020093000300900003008DA8
:1058B0000002008B000300880002008600020084C2
:1058C000000300810002007F0002007D0002007BD7
:1058D00000020079000200770001007600020074E7
:1058E00000020072000100710002006F0002006DF2
:1058F0000001006C0002006A0001006900020067FC
:105900000001006600010065000100640002006201
:1059100000010061000100600001005F0002005D05
:105920000001005C0001005B0001005A0001005909
:105930000001005800010057000100560001005509
:105940000001005400010053000000530001005208
:1059500000010051000100500001004F0001004E05
:105960000000004E0001004D0001004C0001004B02
:105970000000004B0001004A0001004900010048FE
:1059800000000048000100470001004600000046FA
:1059900000010045000000450001004400010043F3
:1059A00000000043000100420000004200010041ED
:1059B00000000041000100400001003F0000003FE6
:1059C0000001003E0000003E0001003D0000003DDF
:1059D0000001003C0000003C0000003C0001003BD6
:1059E0000000003B0001003A0000003A00010039CD
:1059F00000000039000100380000003800000038C5
:105A000000010037000000370001003600000036BA
:105A100000000036000100350000003500000035B0
:105A200000010034000000340000003400010033A5
:105A3000000000330000003300010032000000329B
:105A40000000003200010031000000310000003190
:105A50000001003000000030000000300001002F85
:105A60000000002F0000002F0000002F0001002E7A
:105A70000000002E0000002E0001002D0000002D6F
:105A80000000002D0000002D0001002C0000002C63
:105A90000000002C0000002C0001002B0000002B57
:105AA0000000002B0000002B0001002A0000002A4B
:105AB0000000002A0000002A00010029000000293F
:105AC0000000002900000029000000290001002832
:105AD0000000002800000028000000280000002826
